:1000000036C0000059C0000057C0000066C10000A3
:1000100089C10000AAC100004FC000004DC000000F
:100020004BC0000049C0000047C0000045C00000B0
:1000300043C0000041C00000CFC300003DC000002D
:100040003BC0000039C0000001C4000061C40000D2
:1000500033C000009AC300002FC000002DC0000074
:100060002BC0000029C0000052018304E2041124C7
:100070001FBECFEFD8E0DEBFCDBF11E0A0E0B1E002
:10008000E8E8F0E102C005900D92AE35B107D9F76E
:1000900021E0AEE5B1E001C01D92A63CB207E1F758
:1000A00010E0C7E3D0E003C02197FE01CBD4C433F6
:1000B000D107D1F76AD0E6C7A3CF0F931F93CF9391
:1000C000DF938C01EB016991611105C0DF91CF9144
:1000D0001F910F910895D801ED91FC910480F58155
:1000E000E02DC8010995BE01EDCF0895CB01F1C304
:1000F00065C4CF93C62F8C2F34D48115E1F3CF91F3
:10010000089562E070E0D7C2CF93DF93EC0188815D
:100110009981DC01ED91FC910680F781E02D099534
:10012000CE01DF91CF9108951F93CF93DF93EC0120
:10013000162F8A819B81009729F4CE01DF91CF9100
:100140001F91F7C2672F029741F0CE01C4D2612FF1
:10015000CE01DF91CF911F91BEC2CE01CED2612FD1
:10016000CE01DF91CF911F91C8C2C901DA0100977A
:10017000A105B10509F40895EDE9FFE03197F1F724
:1001800000000197A109B109F2CFCDB7DEB764979E
:10019000DEBFCDBF82E091E00BD1519A5098589AC2
:1001A00087E690E07ED37894CE0101962C01809171
:1001B00024018F93809123018F93ACE2B1E0BF9330
:1001C000AF935F924F92ADD466E371E08AE691E01F
:1001D0009BDFB20199DFDC0113961C921E921297ED
:1001E0008D919C91DC01ED91FC910480F581E02DD5
:1001F0006AE009950F900F900F900F900F900F905D
:10020000812C912C11E08114910409F410E0A12CAF
:10021000B12C60E070E0A114B10421F060912301E1
:1002200070912401C12EE12E012F9B01AB0182E0D0
:1002300091E0F9D166E371E08AE691E065DFF82E9E
:10024000092FB50171DF6FE371E08F2D902F5CDF17
:100250003C01B40169DFF301138212828081918134
:10026000DC01ED91FC910480F581E02D6AE00995B7
:1002700024EF31E040E050E060E070E080E090E0AA
:1002800074DFBFEFAB1ABB0AE8E0AE16B10409F0A9
:10029000C0CFFFEF8F1A9F0A28E08216910409F061
:1002A000B1CF85CFEAE6F1E080E091E091838083F1
:1002B00013821282E6E6F1E0918380831382128238
:1002C000E2E6F1E09183808313821282EEE5F1E0B1
:1002D000918380831382128208951F920F920FB62A
:1002E0000F9211242F933F934F935F936F937F93BC
:1002F0008F939F93AF93BF93EF93FF9382E091E02F
:1003000077D0FF91EF91BF91AF919F918F917F91A6
:100310006F915F914F913F912F910F900FBE0F9072
:100320001F9018951F920F920FB60F9211242F93C2
:100330003F934F935F936F937F938F939F93AF936D
:10034000BF93EF93FF93C9DFFF91EF91BF91AF91FF
:100350009F918F917F916F915F914F913F912F91DD
:100360000F900FBE0F901F9018951F920F920FB60F
:100370000F9211242F933F934F935F936F937F932B
:100380008F939F93AF93BF93EF93FF93A6DFFF915C
:10039000EF91BF91AF919F918F917F916F915F91FD
:1003A0004F913F912F910F900FBE0F901F90189576
:1003B00040E157E260E070E00FC1CF92EF920F93FF
:1003C000CF93DF93EC01C12CE12C00E020E030E082
:1003D00040E050E060E070E026D11E861F86188A5B
:1003E000198A1D8EDF91CF910F91EF90CF900895D4
:1003F000CF93DF93EC010A96E2D0660F660F770F7A
:10040000672B862B9C859817F1F04E855F85688950
:1004100079894F5F5F4F6F4F7F4F4E875F87688B44
:10042000798B8C879C8D91110EC09D8D911559F003
:10043000811511F0873039F41A8681E08C8FCE0156
:10044000DF91CF91BACFDF91CF9108952F923F9254
:100450004F925F926F927F928F929F92AF92BF92D4
:10046000CF92DF92EF92FF920F931F93CF93DF9380
:1004700000D000D00F92CDB7DEB7362E272E082F32
:10048000792E10928000109281008091800082600D
:10049000809380008091810080618093810085E05D
:1004A000E7E2F1E0DE01119601900D928A95E1F705
:1004B000CE0101965C012E0196E0490E511C812C63
:1004C000912C11E0F50161905F01EFEFE60DE53051
:1004D00008F056C0F0E0EE0FFF1FED5AFE4FC0804F
:1004E000D180E12CF12C232D322D402F572DC70127
:1004F000B6016DD29B01AC01220F331F441F551F63
:1005000060E074E284EF90E071D2DA01C901819772
:10051000A109B109803EFFEF9F07A105B10550F485
:100520008096A11DB11D881699061A061B0610F4A7
:100530004C01162D4A145B0429F61330C1F128F53D
:10054000113059F1123079F1909287008092860033
:100550000F900F900F900F900F90DF91CF911F9100
:100560000F91FF90EF90DF90CF90BF90AF909F9052
:100570008F907F906F905F904F903F902F90089555
:10058000C12CD12CE12CF12CAECF1430A1F01530C0
:10059000D9F680918100856003C0809181008160DF
:1005A00080938100D1CF809181008260F9CF8091CA
:1005B00081008360F5CF809181008460F1CF63B1C9
:1005C00073B1617091E069277695717079278827FA
:1005D0001B99839589270895CF93DF93EC01529A55
:1005E000539A549A559A569A579A5A985B985C9887
:1005F0005D9A5E9A5F9A229A60E177E280E090E0ED
:1006000025DFE0E8F0E080818062808310928B003B
:1006100010928A0080918600909187009AA389A306
:10062000DF91CF910895AF92BF92CF92EF920F9347
:10063000CF93DF935C01DB01FA01E901109729F107
:10064000011519F15A9A5D9A309731F1E11421F1AF
:100650005B9A5E9A209739F1C11429F15C9A5F9AEE
:10066000EC2BFD2BEA2BFB2BEF2B39F0F5018085D2
:10067000918590938B0080938A00DF91CF910F91A9
:10068000EF90CF90BF90AF9008955A981097D9F2FD
:100690000111D9CF5D98D8CF5B983097D1F2E11096
:1006A000D8CF5E98D7CF5C982097C9F2C110D7CF2A
:1006B0005F98DCCF0895FECFDC018D919C91DC0129
:1006C000ED91FC910480F581E02D27E36A3008F478
:1006D00020E3620F09941F93CF93DF93182FD92F34
:1006E000C62F62956F70E8DF6C2F6F70812F9D2F82
:1006F000E3DFDF91CF911F9108950F931F93CF9365
:10070000DF938C01C62FD8E0D8018D919C91DC013C
:10071000ED91FC910480F581E02D61E3C7FF60E37A
:100720000995CC0FDA9581F7DF91CF911F910F9149
:1007300008950F931F93CF93DF93CDB7DEB728971C
:100740000FB6F894DEBF0FBECDBF8C01CB014AE0DF
:10075000BE016F5F7F4FC2D1D8018D919C91DC01AA
:10076000ED91FC910680F781E02DBE016F5F7F4F18
:10077000099528960FB6F894DEBF0FBECDBFDF9166
:10078000CF911F910F91089508951F920F920FB668
:100790000F9211242F933F934F935F936F937F9307
:1007A0008F939F93AF93BF93EF93FF93E0912501B6
:1007B000F09126010995FF91EF91BF91AF919F9123
:1007C0008F917F916F915F914F913F912F910F90FA
:1007D0000FBE0F901F9018951F921FB61F921124E5
:1007E0008F939F93AF93BF93809173019091740106
:1007F000A0917501B09176010196A11DB11D809364
:10080000730190937401A0937501B0937601809168
:100810006F0190917001A0917101B09172018851A6
:100820009C4FAF4FBF4F80936F0190937001A09387
:100830007101B093720181E080936E01BF91AF911D
:100840009F918F911F901FBE1F9018952F932FB7C8
:100850002F938F939F93EF93FF939091C000987184
:1008600080917701892B809377019091C6008091C8
:1008700078018F5F893008F080E020917901281796
:1008800041F0E0917801F0E0E858FE4F92838093C8
:100890007801FF91EF919F918F912F912FBF2F9111
:1008A00018959C018FB7F89437FF10C092E0909391
:1008B000C0003F772093C4003093C50098E990931F
:1008C000C10096E09093C2008FBF08951092C000BF
:1008D000F1CFDC019091780180917901981789F02E
:1008E000E0917901F0E0E858FE4F82818C9380918D
:1008F00079018F5F893008F080E08093790181E091
:10090000089580E00895E8E7F1E0108211820895EB
:100910008F938FB78F939F93EF93FF939091830162
:100920008091840198130CC08091C1008F7D8093C9
:10093000C100FF91EF919F918F918FBF8F9118957B
:10094000E0918401F0E0ED57FE4F82818093C60074
:10095000809184018F5F813408F080E0809384016E
:10096000E8CF909183019F5F913408F090E020914F
:100970008401291791F0E0918301F0E0ED57FE4FDB
:100980008283909383019FB7F8948091C100806225
:100990008093C1009FBF81E0089580E00895909109
:1009A000830180918401981307C08091C1000024C5
:1009B00085FF0394802D089580E00895F0DF811570
:1009C000E9F30895E3E8F1E0108211820895DB0174
:1009D0008F939F932DD0BF91AF91A29F800D911DBA
:1009E000A39F900DB29F900D11240895A1E21A2E9D
:1009F000AA1BBB1BFD010DC0AA1FBB1FEE1FFF1FC3
:100A0000A217B307E407F50720F0A21BB30BE40B12
:100A1000F50B661F771F881F991F1A9469F7609559
:100A20007095809590959B01AC01BD01CF01089513
:100A30000FD0A59F900DB49F900DA49F800D911D88
:100A400011240895EE0FFF1F0590F491E02D0994F5
:100A5000A29FB001B39FC001A39F700D811D1124FF
:100A6000911DB29F700D811D1124911D08952F922B
:100A70003F924F925F926F927F928F929F92AF922E
:100A8000BF92CF92DF92EF92FF920F931F93CF937B
:100A9000DF93CDB7DEB7CA1BDB0B0FB6F894DEBF12
:100AA0000FBECDBF09942A88398848885F846E8438
:100AB0007D848C849B84AA84B984C884DF80EE8082
:100AC000FD800C811B81AA81B981CE0FD11D0FB68B
:100AD000F894DEBF0FBECDBFED010895BB274A30AD
:100AE00031F4992322F4BDE2909581959F4F01C086
:100AF000BB27FB015527AA27880F991FAA1FA417F8
:100B000010F0A41B83955051B9F7A05DAA3308F0EB
:100B1000A95DA193009779F7B111B1931192CB011F
:100B200013C2AEE0B0E0E6E9F5E0AFCF0D891E8973
:100B300086E08C831A8309838FEF9FE79E838D83E2
:100B4000AE01475E5F4F6F89788DCE01019609D067
:100B50002F813885020F131FF80110822E96E4E0D2
:100B6000B0CFABE0B0E0E6EBF5E082CF6C017B010B
:100B70008A01FC0117821682838181FFCCC19AE031
:100B8000492EF6012381F70123FD859123FF8191F1
:100B90007F01811509F418C1853239F423FD95913F
:100BA00023FF91917F01953221F4B60190E0DCD1D1
:100BB000E8CF30E0612C512C712CF0E27F1640F52B
:100BC0009B32D9F058F49032D1F09332F1F09E324A
:100BD00099F576FCF9C0689476F806C09D3291F0DC
:100BE0009033C1F4689470F8F70123FD959123FFC9
:100BF00091917F019111E1CF29C0689471F86894B7
:100C000072F8F2CF689473F8EFCF689474F8ECCF71
:100C100077FC1CC080ED890F8A30C8F676FE05C0CF
:100C2000649C800D1124682EDFCF549C800D11240C
:100C3000582E689475F8D8CF9C3619F4689477F8D4
:100C4000D3CF9C3409F44AC0983671F2892F8F7D36
:100C50008554833008F444C0933609F464C0933754
:100C600009F467C0933509F472C0943619F09936C7
:100C700009F099C0F80177FE8FC06191719181915F
:100C800091918F01272D2F76722E97FF09C0909595
:100C90008095709561957F4F8F4F9F4F689477F83F
:100CA0002AE030E0AE014F5F5F4F5A018DD18A19C3
:100CB000A82E76FEBEC0872D8E7FA61408F0B8C081
:100CC00074FE08C172FCFCC0F72DFE7E7F2EB62C90
:100CD000872D8678811509F4B9C0F7C031E084CF3B
:100CE0003115F1F0085F1F4F8FE3898388248394C7
:100CF000912CAE014F5F5F4F5A01E89477F873FC77
:100D000003C08514910498F181149104B1F5511434
:100D100009F437CFB60180E290E026D15A94F7CF9C
:100D20000C5F1F4FE1CFF801808189830E5F1F4F59
:100D3000DDCFF801A190B1908F01662D70E076FCB7
:100D400002C06FEF7FEFC501F4D04C01D6CFF801A0
:100D5000A190B1908F01662D70E076FC02C06FEF1C
:100D60007FEFC501DBD04C01689477F8C8CFB6019E
:100D700080E290E0F9D05A94C4CFF50177FC8591D8
:100D800077FE81915F01B60190E0EED051105A9448
:100D9000F1E08F1A9108B8CF61917191072E000C84
:100DA000880B990B6ECF372CE89434F82AE030E0AA
:100DB000953731F1572D597F352E903791F050F4FA
:100DC0009835A1F09F36D1F0F601868197812B9658
:100DD000E1E16ACE9837C1F774FC05C020E130E04C
:100DE0000FC0689434F8689432F8F8CF74FE03C0EA
:100DF000872D8660382E20E132E002C028E030E006
:100E0000F80137FE10C061917191819191918F012C
:100E1000FE0131965F01AF01D7D08A19A82E732C3D
:100E2000E89477F846CF6191719180E090E0EFCF40
:100E3000782EBA2C74FE4CCFFE01EA0DF11D808194
:100E4000803309F040C0272D297E722E73FC0EC01E
:100E500070FE4BC06A2CB51418F4650C6B18B52CD9
:100E6000852D8B195B1408F480E0B80EB51408F0DA
:100E70003EC05B1874FE3DC0B60180E390E074D0C4
:100E800072FE08C088E590E071FC02C088E790E03F
:100E9000B6016AD0A614C8F1AA94B12C4FEFA41AD7
:100EA000B40ACE0101963C01A80EB91EF50182914B
:100EB0005F01B60190E058D06A147B04B9F727CFE0
:100EC000B62C782EB9CF72FC02C0B394BFCFB394C6
:100ED000B394BCCFB62C782EFBCEB60180E290E066
:100EE00043D033943514C8F3BBCF3B2CFBCF512CEC
:100EF000C1CF872D8678811569F280E271FC8BE283
:100F000077FC8DE2B60190E0C4CFB60180E390E0BB
:100F10002BD06A94BFCF8FEF9FEF59CFFC01059084
:100F2000615070400110D8F7809590958E0F9F1FEB
:100F30000895FC016150704001900110D8F7809530
:100F400090958E0F9F1F0895DC01FC01672F719112
:100F50007723E1F7329704C07C916D93708362919F
:100F6000AE17BF07C8F308950F931F93CF93DF9376
:100F7000182F092FEB018B8181FD09C01FEF0FEFA7
:100F8000812F902FDF91CF911F910F91089582FFB4
:100F900014C02E813F818C819D81281739073CF434
:100FA000E881F981CF0101969983888310838E812E
:100FB0009F8101969F838E83E3CFE885F985812FFA
:100FC0000995892BA1F3DACFFA01AA27283051F12C
:100FD000203181F1E8946F936E7F6E5F7F4F8F4F6A
:100FE0009F4FAF4FB1E03ED0B4E03CD0670F781FC9
:100FF000891F9A1FA11D680F791F8A1F911DA11DAE
:101000006A0F711D811D911DA11D20D009F46894E6
:101010003F912AE0269F11243019305D3193DEF68E
:10102000CF010895462F4770405D4193B3E00FD044
:10103000C9F7F6CF462F4F70405D4A3318F0495D2F
:1010400031FD4052419302D0A9F7EACFB4E0A69512
:101050009795879577956795BA95C9F70097610534
:10106000710508959B01AC010A2E0694579547958A
:1010700037952795BA95C9F7620F731F841F951F7F
:08108000A01D0895F894FFCFB4
:10108800470100000000000000000000010000000F
:101098000000000000000000000000000101000046
:1010A8000000010000C40301020304054943523152
:1010B800203D202575006465627567203A20002070
:1010C8003B2000000000007500810079005D007879
:0E10D800007600010008004000000100040046
:00000001FF
