:020000040800F2
:1000000000000120694C0008B94C0008B94C0008F8
:10001000B94C0008B94C0008B94C000800000000B9
:10002000000000000000000000000000B94C0008C3
:10003000B94C000800000000B94C000863420008F9
:10004000B94C0008B94C0008B94C0008B94C00087C
:10005000B94C0008B94C00085D4300086343000830
:10006000694300086F43000875430008B94C000855
:10007000B94C0008B94C0008B94C0008B94C00084C
:10008000B94C0008B94C0008B94C00080000000049
:100090000000000000000000000000007B4300089A
:1000A000113600088935000825360008AD350008EE
:1000B000C1350008D5350008E9350008B94C0008FD
:1000C000B94C0008B94C0008B94C0008B94C0008FC
:1000D000B94C0008F94A0008114B00080000000064
:1000E00091430008B94C00080D18000800000000FA
:1000F000000000000000000000000000B94C0008F3
:1001000000000000B94C0008FD350008B94C00089B
:1001100000000000000000000000000000000000DF
:10012000B94C0008B94C0008B94C0008B94C00089B
:10013000B94C0008000000000000000000000000B2
:10014000000000000000000000000000011800088E
:10015000B94C0008B94C0008B94C00082D4B0008F8
:10016000B94C0008B94C0008000000000000000075
:10017000000000000000000000000000000000007F
:1001800000000000B94C0008000000000000000062
:04019000B94C00085E
:1001940053B94AB9002908BF00281CBF4FF0FF31EA
:1001A4004FF0FF3000F00CB8ADF1080C6DE904CE4F
:1001B40005F05CF8DDF804E0DDE9022304B07047E3
:1001C400704700BF034613F8012B002AFBD1181A0D
:1001D4000138704710B5054C237833B9044B13B17B
:1001E4000448AFF300800123237010BD00020020F7
:1001F400000000007058000808B5034B1BB1034908
:100204000348AFF3008008BD000000000402002092
:100214007058000807B503688DF807105B68012261
:100224000DF10701984703B05DF804FB014800F0A5
:10023400B9B800BF140500202DE9F041DFF83C8077
:100244000E4617461546ADB100F06CFD90B1404620
:1002540000F0A8F8A84228BF284604460028F3D096
:1002640031460648224600F0BEF82D1B264400F015
:1002740079FDE8E7781BBDE8F08100BF1405002094
:10028400014800F056B900BF4E04002010B50448E0
:1002940000F077F9044600F09BFD204610BD00BF36
:1002A4004E0400202DE9F84306460F46154694B245
:1002B40004F0A0FDDFF83490F06022463946484649
:1002C40000F0BCF98046A4EB0804A4B200F080FD61
:1002D40047443CB104F08EFDF368C01AB3689842F9
:1002E400EBD32D1B2846BDE8F88300BF4E04002045
:1002F4002DE9F04F85B00646884617461C469DB248
:1003040004F078FDDFF84CA0F0600DF10E092B46E7
:100314003A464146CDF80090504600F0D7F983465E
:1003240000F056FDBDF80E30ED1AADB21F44BBF11E
:10033400000F04D0641B204605B0BDE8F08F002DEB
:10034400F9D004F057FDF368C01AB3689842DED3BD
:10035400F0E700BF4E040020014800F049B900BF97
:100364004E04002010B5034C204600F02BF8002862
:10037400FADC10BD1405002000F0B0BC044B4FF4AF
:100384007A720021C3E90112024A1A60704700BF61
:100394001C020020905800080023A0F88230A0F826
:1003A40080307047B0F88230B0F880209BB292B2AF
:1003B400981A7F30434203F07F0300F07F0058BF58
:1003C40058427047B0F88030B0F882209BB292B2A5
:1003D40003F18000801A434203F07F0300F07F00A2
:1003E40058BF58427047F8B5B0F88050ADB2C5F167
:1003F4008005954204460F46B0F8800016460CD995
:1004040014FA80F005F0DAF9B4F8802016FA82F2D2
:1004140002F07F02A4F88020F8BD2A4614FA80F086
:1004240005F0CCF9721B79192046EBE7B0F880206F
:10043400B0F8823092B29BB29A422BBFB0F88030AF
:10044400B0F88230B0F88220C3F1800328BF9B1A31
:100454009BB20B80A0F88430B0F8823010FA83F09D
:100464007047B0F88220B0F88430134403F07F035F
:10047400A0F8823070470023A0F8C230A0F8C03042
:10048400C023A0F8C4307047B0F8C22082B092B242
:10049400ADF80620B0F8C010BDF8062089B292B2BB
:1004A4009142B0F8C020034692B21FD37F2A08D9E4
:1004B400B0F8C02092B2802A09D1BDF8062092B2C9
:1004C4002AB1B3F8C00013FA80F002B07047BDF847
:1004D400062092B2402A4FF00000F6D9B3F8C020AB
:1004E40092B2A3F8C420A3F8C000EAE7BDF806104E
:1004F400403289B28A42E4D30020E6E7B0F8C03043
:1005040011FA83F39BB2A0F8C030B0F8C020B0F861
:10051400C43092B29BB29A4224BFC023A0F8C43024
:10052400B0F8C0309BB2BF2B84BF0023A0F8C0300A
:100534007047B0F8C03082B09BB2ADF80430B0F868
:10054400C4309BB2ADF80630B0F8C220BDF8043018
:1005540092B29BB29A4208D8BDF80430B0F8C220D7
:100564009BB292B2981A02B07047BDF80630BDF83B
:100574000410B0F8C22089B292B211FA83F0801A42
:10058400F1E7B0F8C02082B092B2ADF80420B0F820
:10059400C42092B2ADF80620B0F8C210BDF806200F
:1005A40089B292B2914204BF0022A0F8C220B0F8EE
:1005B400C210BDF8042089B292B29142034614D00D
:1005C400B0F8C22092B2511C89B2A0F8C210B3F89C
:1005D400C210805CBDF8062089B292B2914202D367
:1005E4000022A3F8C22002B070474FF0FF30FAE7B0
:1005F400B0F8C03082B09BB2ADF80430B0F8C4306B
:100604009BB2ADF80630B0F8C220BDF8063092B205
:100614009BB29A4224BF0023A0F8C230B0F8C22093
:10062400BDF8043092B29BB29A421BBFB0F8C230FC
:100634009BB24FF0FF30C05C02B0704737B5044640
:100644000846B4F8C0309BB2ADF80430B4F8C430F6
:100654009BB2ADF80630B4F8C210BDF8063089B2CA
:100664009BB2994224BF0023A4F8C230B4F8C2104C
:10067400BDF8043089B29BB2994294BFBDF80450CE
:10068400BDF80650B4F8C230B4F8C210ED1AADB2D9
:10069400954228BF15462A4614FA81F105F08EF8D2
:1006A400B4F8C23015FA83F39BB2A4F8C230B4F89C
:1006B400C220BDF8063092B29BB29A4228BF0023F2
:1006C400284628BFA4F8C23003B030BDF7B51C4695
:1006D400B0F8C030089D9BB2ADF80430B0F8C43017
:1006E4009BB2ADF80630B0F8C260BDF80630B6B2C1
:1006F4009BB29E4224BF0023A0F8C230B0F8C2606F
:10070400BDF80430B6B29BB29E4294BFBDF804302B
:10071400BDF80630B0F8C260B0F8C2709B1B9BB243
:10072400A34228BF234610FA87F70024A6B2B34297
:1007340011D82B80B0F8C22013FA82F39BB2A0F830
:10074400C230B0F8C220BDF8063092B29BB29A42D1
:1007540020D2002018E017F804C08C4516D1B0F858
:10076400C2309BB2013333449BB2A0F8C230B0F81C
:10077400C220BDF8063092B29BB29A4224BF002335
:10078400A0F8C2302E80012003B0F0BD02F804C0EE
:100794000134CBE70023A0F8C230DAE7D0F8D43232
:1007A40000EB830010B5D0F8C0428CB1D0F8C4324D
:1007B4001BB194F80002FF2801D1002010BD9B68F2
:1007C40094F8012221469847FF2384F80032F4E785
:1007D4000320F3E70A230380004870470401002044
:1007E40070B5832106460F4800F0AEFC0121054692
:1007F4000C4800F0A9FC822104460A4800F0A4FC3D
:100804000DB11022AA711CB1402222710022627122
:1008140018B14022027100224271432301483380FF
:1008240070BD00BF0000002070B5832106460F484C
:1008340000F08AFC012105460C4800F085FC822169
:1008440004460A4800F080FC0DB11022AA711CB1C4
:10085400402222710022627118B1402202710022EA
:10086400427143230148338070BD00BF440000201F
:1008740070B5832106460F4800F066FC0121054649
:100884000C4800F061FC822104460A4800F05CFC3C
:100894000DB11022AA711CB10022227102226271D0
:1008A40018B10022027102224271432301483380AD
:1008B40070BD00BF8800002038B5D0F8D432B03302
:1008C400044650F823508DB101F03BF8D4F8D432EB
:1008D400C5F80C0204EB8304D5F80402D4F8C4323E
:1008E40005F50371DB689847002038BD0320FCE759
:1008F400F8B5D0F8D462D0F8C87200EB86060A4680
:10090400D6F8C05225B301F00F0C142404FB0C04D8
:10091400A3697BB14FF0240E0EFB0C77FF69B3FB88
:10092400F7FC07FB1C332BB9A3611A4600F0FBFF4D
:100934000020F8BD0023C5F81432D6F8C4321B6970
:10094400002BF5D0D5F8080205F504719847EFE7B8
:100954000320EEE7D0F8D432F7B500EB830300228E
:10096400D3F8C0628DF8052004460D46ADF8062084
:10097400002E65D091F800C01CF0600229D0202A16
:100984005AD1CA884F78F2B11CF0800F0ED0D3F838
:10099400C43231469B6838469847EA88072A28BFFC
:1009A40007223146204600F032FE09E0402A28BFE3
:1009B400402286F8007286F80122314600F03CFE9F
:1009C400002003B0F0BDD3F8C43238469B68984782
:1009D400F6E74B780B2B2FD801A252F823F000BF77
:1009E400150A0008C50900083D0A00083D0A000868
:1009F4003D0A00083D0A00083D0A00083D0A0008B7
:100A04003D0A00083D0A0008250A0008350A0008C6
:100A140090F89C32032B0FD102220DF10601C1E79D
:100A240090F89C32032B07D101220DF10501B9E79F
:100A340090F89C32032BC3D02946204600F0BBFD1E
:100A44000320BEE738B504460025822100F03DFFAF
:100A54000121A4F84C50204600F037FFA4F8785147
:100A64008321204600F031FFD4F8D432256604EB0C
:100A74008303D3F8C02252B1D3F8C4325B689847D9
:100A8400D4F8D432B03344F82350C4F8BC52002014
:100A940038BD0000F8B52D4D04464FF4077200210F
:100AA400284604F009FED4F8D432B03344F8235075
:100AB400237CC4F8BC52CBBB4FF4007382210222C6
:100AC400204600F0F8FE0121A4F84C104FF4007306
:100AD4000222204600F0EFFE012610230322A4F890
:100AE400623083210823A4F87861204600F0E3FEF5
:100AF400D4F8D432A4F8606004EB83030027D3F85D
:100B0400C432C5F804721B689847D5F80422C5F8A6
:100B14001472C5F81872B2B1237C93B94FF4007300
:100B24003146204600F006FF0020F8BD4023822114
:100B34000222204600F0BFFE0121A4F84C104023FD
:100B4400C6E74023ECE70220EFE700BF2C020020B9
:100B540039B1D0F8D43200EB8300C0F8C4120020BD
:100B6400704703207047D0F8D432B03350F82330A4
:100B74002BB1C3F80812C3F81022002070470320D9
:100B84007047D0F8D432B03350F823301BB1C3F8D7
:100B940004120020704703207047D0F8D432B033D9
:100BA40010B550F823207AB1D2F8144201236CB95D
:100BB400C2F81432D2F810320364D2F80822822127
:100BC40000F0B1FE204610BD0320FCE71846FAE70A
:100BD400D0F8D422B03208B550F8222062B1037C98
:100BE400D2F8042233B94FF40073012100F0A2FEBD
:100BF400002008BD4023F8E70320FAE7D0F8D42208
:100C0400B03208B550F8223033B100231A4601211E
:100C140000F090FE002008BD0320FCE70020704790
:100C240021280ED022281DD0202808D1184B0A686C
:100C34001A600A791A714A795A718A799A7100206C
:100C44007047134B1A680A701A68120A4A705A8855
:100C54008A70DA78CA701A790A715A794A719B795A
:100C64008B71ECE70B4A4B8812780B49002A14BFAE
:100C74001A46012202F001020A700A7812B1074AE8
:100C840000211160064AC3F340031370D7E700BF85
:100C9400100100202D0100204D04002048040020F4
:100CA4004C04002010B5094C0948FFF775FB204699
:100CB400FFF7E1FB074B012220461A70FFF7E4FB24
:100CC40001460548FFF75DFF002010BD4E040020DB
:100CD400140500202C0100209C05002010B50C4CAC
:100CE40022789AB90B490C4800F0A4F870B90B4962
:100CF400094800F0B2F848B909490748FFF728FF46
:100D040020B9054800F0C2F80123237010BD00BFCC
:100D14009A050020600100209C050020CC000020E2
:100D24001801002038B50C4B0C4D1C683CB995F8E3
:100D34009C32032B0CD0002000F0010038BD00F0E1
:100D440039FF95F89C32032BF5D1001B0228F2D809
:100D5400034B1878C0B2EFE7480400209C0500203C
:100D64004D04002037B50F4CD4F8BC32D3F81432FC
:100D7400ABB90D480DF10601FFF758FBBDF806307D
:100D8400054663B100F016FF084BBDF80620186055
:100D940029462046FFF7E7FE2046FFF7FEFE03B094
:100DA40030BD00BF9C05002014050020480400202D
:100DB40010B5054B054800241C60FFF752FBFFF7F4
:100DC400D1FF204610BD00BF4804002014050020B8
:100DD40038B50A4D2B780BB1002038BD0848FFF711
:100DE40053FB01460028F7D0012406482C70FFF776
:100DF400C8FE0448FFF7ECFE2046EEE72C01002075
:100E04004E0400209C05002008B509880648FFF719
:100E140075FB064B00221A70FFF7DAFF10B904487D
:100E2400FFF7ECFE002008BD4E0400202C0100203A
:100E34009C05002078B10023C0F8B832C0F8C43251
:100E4400C0F8D03209B1C0F8B412012380F89C3242
:100E5400027000F0F7BC0320704713B5002304466A
:100E6400ADF8063081B1CB6AC0F8B81223B10DF1E8
:100E740006009847C4F8D002D4F8D8320133C4F835
:100E8400D832002002B010BD0320FBE700F00CBDF7
:100E9400D0F8B8320BB11B6818471846704708B52C
:100EA400D0F8B8325B689847002818BF032008BD03
:100EB40038B5044600F2AA25284600F071FB012348
:100EC40094F8AA12C4F89432B4F8B032C4F8983240
:100ED40001F01F03012B08D0022B0CD08BB929463B
:100EE4002046BDE8384000F04DB929462046BDE80B
:100EF400384000F08BBA29462046BDE8384000F05F
:100F0400B2BA204601F08001BDE8384000F0E4BCEC
:100F140070B50446164609BBD0F89432032B0CD1A5
:100F2400D0E9573293420AD99B1A9A42C0F85C31ED
:100F340028BF1A46314600F08CFB002070BD90F8A3
:100F44009C32032B06D1D0F8B8321B6913B1C0F818
:100F5400D4129847204600F084FBEEE790F89C32C8
:100F6400032BEAD1D0F8B8329B69002BE5D00022DC
:100F7400BDE87040C0F8D422184770B50446164640
:100F84000D4600293DD1D0F89432022B0ED1D0E980
:100F94000732934212D99A1AC261314600F044FBD7
:100FA4002B462A462946204600F0C4FC94F8A03279
:100FB40013B1002384F8A032002070BD0CD18269E3
:100FC400934209D8D0F898329A4205D20A4600F0E2
:100FD4002BFBC4F89852E3E794F89C32032B08D116
:100FE400D4F8B832DB6823B10022C4F8D4222046F6
:100FF40098478021204600F06FFC204600F03CFB1F
:10100400D4E790F89C32032BD6D1D0F8B8325B6980
:10101400002BD1D00022BDE87040C0F8D42218477C
:10102400F8B5012380F89C32D0F8B8320021044688
:10103400C0F894124160C0F8A41280F8A012B3B9A9
:10104400002600224025114601274023204600F0B7
:1010540032FCA4F86471C4F860512B46002280214C
:10106400204600F028FCA78425623046F8BD5B6862
:10107400002BE5D098470028E2D00326E1E701746D
:101084000020704790F89C32042B1EBF90F89C32CD
:10109400DBB280F89D32042380F89C320020704734
:1010A40090F89C32042B02BF90F89D32DBB280F89A
:1010B4009C320020704708B590F89C22032A05D181
:1010C400D0F8B83213B1DB6903B19847002008BDEA
:1010D400D0F8D422AE3208B550F822204AB190F8A4
:1010E4009C32032B01D1136A0BB9002008BD984729
:1010F400FBE70320FAE7D0F8D422AE3208B550F863
:1011040022204AB190F89C32032B01D1536A0BB9C7
:10111400002008BD9847FBE70320FAE7002070474A
:10112400012208B580F89C22D0F8B8220AB9002020
:1011340008BD5268017990470028F8D00320F7E7EA
:10114400002070470020704710B5428803789A4207
:1011540001D8002010BD0478204423444478052C91
:101164009BB2F4D184788C42F1D1F3E710B580219D
:10117400044600F0B1FB20460021BDE8104000F019
:10118400ABBB000073B50B7803F06003202B04465F
:101194000D4612D0402B10D0002B5AD14B78092B7E
:1011A40057D8DFE813F00201240156001601560057
:1011B400840016005600EC00A000D4F8D432AE33FC
:1011C400294654F823309B68204602B0BDE870409D
:1011D400184749880023ADF806300B0A013B062B5B
:1011E40037D8DFE803F0041C2936364F5900D0F80D
:1011F400B4321B68207C0DF106019847EA88002A66
:1012040000F0A080BDF806301BB39A4228BF1A46EE
:10121400ADF806200146204600F0F9F91CE0027CF6
:10122400D0F8B83232B99B6A0DF106009847022310
:101234004370E3E7DB6AF7E7C9B2D0F8B4320529B3
:1012440018D8DFE801F0030D0F1113155B68002BAC
:10125400D0D12046FFF78AFF0025284602B070BD92
:101264009B68F4E7DB68F2E71B69F0E75B69EEE78C
:101274009B69ECE7DB69002BEBD00DF10602007CE7
:101284009847BBE7037C002BE3D1D0F8B8320DF1CB
:1012940006005B6B9847B1E7037C002BD9D1D0F8EB
:1012A400B8320DF106001B6B98470723C0E78B8803
:1012B400002BCED1CB88002BCBD14D887F2DC8D825
:1012C40090F89C32032BC4D0E9B280F89E1200F04F
:1012D40023FB204600F0C5F91DB1022384F89C329B
:1012E400BAE70123FAE78978474D0129297003D920
:1012F400FFF73CFF0325B0E790F89C32022BDEB2E7
:1013040008D0032E17D0FFF731FF29782046FFF7C6
:10131400C6FDEFE7B1B101214160FFF7B9FD054614
:10132400204625B1FFF722FF84F89C6295E700F080
:1013340098F90323D2E749B9022380F89C3241602B
:10134400FFF7ADFD204600F08CF985E741680129DF
:10135400F8D0C9B2FFF7A3FD297861602046FFF7F2
:1013640097FD05460028EDD02046FFF7FFFE2179C2
:101374002046FFF794FD022384F89C326DE7CA8867
:10138400012A7FF466AF90F89C120229CBB207D8E9
:10139400002B3FF45EAF0146002341F8083F3AE7D3
:1013A400032B7FF456AF011D35E790F89C32013BC7
:1013B400022B3FF64EAFCA88022A7FF44AAFD0F818
:1013C400A4320146002B0CBF0123032341F80C3F38
:1013D40021E74B88012B02D1C4F8A432B2E7022BD7
:1013E4007FF437AF8B881B0A80F8A032AAE790F805
:1013F4009C32013B022B3FF62CAF4B88012B7FF430
:101404002BAF0023E8E700BF7808002038B50B783D
:1014140003F060025B0604460D4601D5402A1CD148
:1014240094F89C32013B022B17D8297902292046D3
:1014340014D8FFF785FEA0B9D4F8B8329B6883B1FD
:10144400C4F8D402294620469847EA8822B918B934
:10145400204600F006F9002038BD2046FFF786FE3E
:10146400F9E70320F8E770B50B788A880E7903F062
:101474006003202B04460D4653D0402B51D063BB50
:101484004B78012B3BD0032B20D033BB90F89C32FC
:10149400022BD9B261D003291FD106F00F0312F039
:1014A400800F4FF0140202FB030365D09B8CA3B1A1
:1014B40006F07F05013505EB850500EB8505730610
:1014C40066D100232B600222294651E090F89C3219
:1014D400022BDAB237D0032A03D02046FFF746FEA8
:1014E4000BE04B8833B9710604D0EB8813B931464D
:1014F40000F0F2F9204600F0B4F8002070BD90F836
:101504009C32022BDAB21ED0032AE6D14B88002B80
:10151400F3D1730602D0314600F0E5F9204600F01D
:10152400A0F831462046FFF70DFE0028E5D1D4F897
:10153400B832C4F8D4029B68002BDED0294620467A
:10154400BDE8704018477206C7D0314600F0C4F9B0
:101554008021204600F0C0F9CFE77106BDD1120604
:101564004CBF00F1140100F5AA7100230B600222A4
:10157400204600F04CF8C0E7B3F86431002BACD03F
:1015840006F07F05142303FB050505F5AA7596E708
:101594003146204600F0AEF9002892D0012391E7AD
:1015A4000B7803704B7843704B8843808B8883801F
:1015B400CB88C380704710B58021044600F08CF9B5
:1015C40020460021BDE8104000F086B970B50D46F4
:1015D4001646044698B1FEF7F5FDC0B2013043004B
:1015E40080288CBF4FF480739BB233802B7003230D
:1015F4006B70013C0223002114F8012F02B970BD65
:10160400EA545A1CD2B20233A954DBB2F4E710B53F
:1016140013460222C0E90633C0F894220A46002188
:1016240000F081F9002010BD08B513460A460021D8
:1016340000F079F9002008BD10B513460322C0E973
:101644005633C0F894220A46002100F073F90020B2
:1016540010BD08B513460A46002100F06BF90020BE
:1016640008BD08B504220023C0F8942219461A467E
:1016740000F059F9002008BD08B505220023C0F880
:10168400942219461A4600F055F9002008BD0000BE
:101694000368B3F1A04F37B504463DD11F4D03E0B5
:1016A400A96802F01DFF0C352868431CF8D11C4BB7
:1016B4005A6B002542F080025A6301955A6C42F439
:1016C40080425A645B6C03F48043012101932A46EF
:1016D4004320019B00F09AFA432000F0C9FAE17A12
:1016E400012919D10F4B4FF480225A61DA6822F490
:1016F4008022DA609A6842F480229A601A6842F47E
:1017040080221A602A202A4600F080FA2A2003B098
:10171400BDE8304000F0ACBA03B030BD6C590008ED
:1017240000380240003C014000F29C41D0F8E00443
:10173400FFF7BEBB242303FB0103D0F8E004D3F876
:101744006022FFF7E5BB242303FB0103D0F8E00488
:101754001A6AFFF712BCD0F8E004FFF7ACBC10B56E
:101764000446D0F8E004FFF75BFCD4F8E004012160
:10177400BDE81040FFF783BC10B50446D0F8E00480
:10178400FFF780FC2268D2F8003E43F00103C2F860
:10179400003EE37A23B1034A136943F0060313615D
:1017A40010BD00BF00ED00E010B5C37A044633B1AC
:1017B40000F05CF9084A136923F0060313612268F8
:1017C400D4F8E004D2F8003E23F00103BDE8104051
:1017D400C2F8003EFFF764BC00ED00E0D0F8E0047E
:1017E400FFF789BCD0F8E004FFF772BCD0F8E0043E
:1017F400FFF794BCD0F8E004FFF792BC014800F076
:10180400B1BC00BF7C08002010B50B4CE37A6BB16F
:101814000A4A136923F00603136100F027F92268CA
:10182400D2F8003E23F00103C2F8003E044B4FF40B
:1018340080225A6110BD00BF7C08002000ED00E04A
:10184400003C014070B5164C054600F0FFF8042337
:1018540023714FF0A04323604FF40073E380A3602F
:10186400C4F8E0540023C5F8C8422046E36023745A
:1018740000F0B2FA00B1FEE70A4D2046A98800F054
:10188400D6FF0126AA8955F8081F204601F00F014A
:10189400013600F0ADFF052EF4D1002070BD00BF6D
:1018A4007C0800204459000808B5D0F8C80200F0AC
:1018B40002FB002008BD10B51446D0F8C8021A4631
:1018C400234600F02AFB002010BD08B5D0F8C8025A
:1018D40000F05CFB002008BD08B5D0F8C80200F099
:1018E400C4FB002008BD08B5D0F8C80200F0F4FB22
:1018F400002008BD11F0800FD0F8C8324FF0240248
:101904001BBF01F07F0102FB013302FB0133987D11
:1019140008BF93F85602704708B5D0F8C80200F023
:10192400E9FA002008BD08B5D0F8C80200F082FB2F
:10193400002008BD08B5D0F8C80200F055FB00200F
:1019440008BDD0F8C80200F06DBB000012230148A6
:101954000B8070474C010020042301480B80704722
:101964004801002000487047600D0020002370B536
:101974004D1C1E46DCB2A24200D870BD040FB0F16B
:10198400204F34BF3034373401F81340000105F8D8
:1019940013600133EEE700001A2310B50B800A4BE5
:1019A400D3F8100AD3F8182A80180AD0D3F8144AA6
:1019B40006490822FFF7DAFF042210312046FFF718
:1019C400D5FF034810BD00BF0070FF1F3001002089
:1019D4002E01002010B5044C04480A462146FFF7A6
:1019E400F5FD204610BD00BF600E0020B45800086D
:1019F4000A4608B5044920B90448FFF7E7FD024840
:101A040008BD0348F9E700BF600E0020C75800086E
:101A1400E758000810B5044C04480A462146FFF76D
:101A2400D5FD204610BD00BF600E002007590008F8
:101A340010B5044C04480A462146FFF7C7FD20466A
:101A440010BD00BF600E00202359000808B54FF0F8
:101A5400A04002F0F1FA0A2003F0CEF9BDE80840F4
:101A64004FF0A04002F0DABAFFF738B908B502F037
:101A7400FFFBBDE8084000F001B8000010B594B0C9
:101A84001422002109A803F017FE1422002103A840
:101A940003F012FE1F4B00220192196C41F0805199
:101AA40019641B6C1C4903F080530193019B02923F
:101AB4000B6823F4404343F400430B600B6803F4C6
:101AC40040430293029B012110230820CDE90B130C
:101AD400A823CDE9100302244FF0040C072308A81F
:101AE400CDE90E42CDE912C3089400F0A5FE00B181
:101AF400FEE70F23CDE903344FF48053CDE90630DC
:101B04000590214603A801F073F800B1FEE714B074
:101B140010BD00BF00380240007000407047000054
:101B240038B50E4B1A784FF47A73B3FBF2F30C4AC0
:101B340005461068B0FBF3F000F0BAF8044658B953
:101B44000F2D09D8024629464FF0FF3000F05EF809
:101B5400044B20461D6038BD0120FCE780010020B5
:101B6400A80100208401002008B50B4B1A6842F438
:101B740000721A601A6842F480621A601A6842F4A9
:101B840080721A60032000F02FF80020FFF7C8FFCE
:101B9400FFF7C4FF002008BD003C0240034A044B89
:101BA40011681B780B441360704700BF600F00205E
:101BB40080010020014B1868704700BF600F0020AF
:101BC40038B50446FFF7F6FF631C1CBF054B1B78B2
:101BD400054618BFE418FFF7EDFF431BA342FAD3F1
:101BE40038BD00BF800100200749CA6822F4E062C2
:101BF4000302120403F4E063120C134343F0BF63C3
:101C040043F40033CB60704700ED00E0164B30B571
:101C1400DC68C4F30224C4F10703251D042B28BF88
:101C24000423062D4FF0FF358CBF033C002405FA36
:101C340003F321EA0303A54022EA0502A340002896
:101C440043EA0203ACBF00F16040084A4FEA0313C1
:101C5400B8BF00F00F00DBB2AABF00F56140135417
:101C640080F8003330BD00BF00ED00E014ED00E06B
:101C7400002807DB044A4109012300F01F008340C8
:101C840042F82130704700BF00E100E000280CDB7F
:101C94004309064900F01F0020330122824041F825
:101CA4002320BFF34F8FBFF36F8F704700E100E035
:101CB4000138B0F1807F0BD24FF0E023054A586120
:101CC400F02182F823100020072298611A617047DE
:101CD4000120704700ED00E0002808DB43090449B7
:101CE40000F01F0001226033824041F82320704736
:101CF40000E100E0704708B5FFF7FCFF08BD70473E
:101D040010B5044650B1437903F0FF0213B90271D0
:101D1400FFF7F5FF01236371002010BD0120FCE7EC
:101D240070B50446866DFFF745FF94F83530022BF5
:101D3400054606D0802363650120002384F83430EF
:101D440070BD23681A6822F016021A605A6922F0DC
:101D540080025A61226C0AB9A26C1AB11A6822F084
:101D640008021A601A6822F001021A6023681868CF
:101D740010F0010007D1E26D3F239340B3600123CB
:101D840084F83530D9E7FFF715FF401B0528EDD956
:101D940020230320636584F83500CEE790F83530BE
:101DA400022B03D08023436501207047026805237A
:101DB40080F83530136823F0010313600020704766
:101DC400044A5169014208B502D0506102F0AEFAEA
:101DD40008BD00BF003C0140F7B5044610B390F8BD
:101DE4009534056803F0FF021BB980F89424FFF7CB
:101DF4004FFC0323B5F1A04F84F8953404BF0023AE
:101E0400A371206801F048FD237C8DF80030251D66
:101E140095E80E00206801F085FC014630B10223EC
:101E240084F895340125284603B0F0BD206801F0FC
:101E340039FD0028F3D1267904F114030127024661
:101E4400C1B28E4203F124031BD8002104F515739B
:101E54000A46C8B2864203F1240320D8237C8DF8B5
:101E6400003095E80E00206801F098FD0546002832
:101E7400D5D101236074206884F8953402F0DCF82D
:101E8400D1E723F80A0C43E9072203F8237C03F87B
:101E9400241C03F8202C43F8142C0130D0E743E928
:101EA400072203F8232C03F8240C03F8202C43F80E
:101EB400142C0131CDE710B50446006894F894342D
:101EC400012B15D0012384F89434C3685B0606D52E
:101ED400637B012B02BF836B43F48033836301F084
:101EE400D5FC206802F09AF8002084F8940410BD10
:101EF4000220FCE710B590F89424012A04460AD085
:101F0400012280F894244174006802F077F80020DC
:101F140084F8940410BD0220FCE770B501F00F06AC
:101F240006EBC60411F0800F05464FEA84044FF017
:101F3400240020D000FB065004F11401012429449C
:101F44004475C2F30A028A604A780E700B7102B1BA
:101F54004E83022B04BF00234B7195F89434012B5C
:101F640012D00123286885F8943401F0E6FD00209E
:101F740085F8940470BD00FB065004F51571002427
:101F8400294480F85542DCE70220F3E710B5044603
:101F940001F00F0000EBC00311F0800F4FEA830340
:101FA4004FF0240215D002FB004203F11401012377
:101FB40021445375087094F89434012B12D00123F2
:101FC400206884F8943401F0F7FD002084F8940428
:101FD40010BD02FB004203F515710023214482F871
:101FE4005532E7E70220F3E770B501F00F0524242A
:101FF40004FB050104FB0504C4E998230023C4F889
:10200400683284F8553284F854521646827900684E
:10201400012A01F5157108BFC4F8706201F078FE59
:10202400002070BD01F00F01242303FB0100D0F850
:102034006802704770B501F00F05242404FB050104
:1020440004FB0504C4E908230023A3620123637588
:1020540025751646827900689A4201F1140108BF79
:10206400266301F055FE002070BD38B5037901F0F8
:102074000F05AB4204462BD311F0800F4FF0240020
:102084001DD000FB054100FB0540012314314375BD
:1020940001238B700D7094F894249A421AD020680E
:1020A40084F8943401F056FF2DB9A179206804F224
:1020B4009C4202F011F8002084F8940438BD00FB1F
:1020C40001431A4603F51571002382F85532DFE700
:1020D4000120F3E70220F1E738B5037901F00F029C
:1020E4009342044629D302EBC20311F0800F4FEA56
:1020F40083034FF0240017D000FB024003F11401C6
:1021040001232144437500258D700A7094F894349A
:10211400012B14D00123206884F8943401F045FF86
:1021240084F89454284638BD00FB024003F5157129
:102134000023214480F85532E5E70120F3E702202B
:10214400F1E701F00F0303EBC3030A064FEA83032D
:102154004CBF03F1140103F515710144006801F04B
:1021640081BD00002DE9F04F066889B00446304671
:1021740001F09EFF0390002840F05781206801F091
:1021840069FF002800F05181D6F808382068C3F3AD
:102194000D23C4F8D43401F05DFF870748BF2268DB
:1021A400206842BF536903F00203536101F052FFF8
:1021B400C00606F500652CD52268936923F0100348
:1021C4009361D6F82080C8F34343022B08F00F072D
:1021D40040F02E8147F6F07318EA030F14D024233D
:1021E40003FB0747C8F30A19D7F860124A4630467A
:1021F40001F090FED7F860324B44C7F86032D7F84C
:1022040068324B44C7F868322268936943F010037C
:102214009361206801F01EFF010300F11B81206817
:1022240001F018FF42030DD5206801F01FFF274677
:10223400049006F5106B4FF0000A049B2068002BF5
:1022440040F0D281206801F005FF002813DA6B68A2
:1022540023F001036B6094F8CC34012B40F06A82C4
:10226400002184F8CC14204600F0E5FA2268536972
:1022740003F000435361206801F0ECFE01050AD528
:10228400AB68DA0702D52046FFF776FA226853696D
:1022940003F400635361206801F0DCFEC30433D50A
:1022A4006B68206823F001036B60102101F02AFBA6
:1022B400207906F510634FF67F31039A904200F2BD
:1022C4003D82EB6943F00113EB61E37B002B00F0EB
:1022D4005182D5F8843043F00B03C5F884306B6C1D
:1022E40043F00B036B64D6F80038206823F4FE63D4
:1022F400C6F8003804F29C42A17901F0EDFE226890
:10230400536903F480535361206801F0A3FE8704EA
:1023140016D5206801F0D0FE206801F003FCE071BE
:10232400276800F0FFFCE2790146384601F03EFAE6
:102334002046FFF714FA2268536903F400535361EB
:10234400206801F087FE000707D52046FFF703FA4F
:102354002268536903F008035361206801F07AFE90
:10236400010600F11282206801F074FEC2020CD54D
:10237400A04606F5126901272379BB4200F21E82AA
:102384002268536903F480135361206801F062FEEC
:1023940083022DD594F804E0234606F5326001212A
:1023A4008E4520D993F87CC20268BCF1010F40F03D
:1023B4001B82002A80F21882D4F8D47402F480328A
:1023C40007F00107BA4240F00F8283F87BC2B2697A
:1023D40042F08002B2617269170600F105826B68EF
:1023E40043F400736B602268536903F40013536170
:1023F400206801F02FFE410007D52046FFF7F6F9CB
:102404002268536903F080435361206801F022FE7F
:1024140042070AD523685D686B0702D52046FFF79B
:10242400E9F9226853682B43536009B0BDE8F08F83
:10243400062B7FF4E9AE082204F29C41304601F0F9
:1024440069FD242303FB0747C8F30A18D7F8683249
:102454004344D7E6206801F001FE06F53068049095
:10246400A2460027049B2068002B3FF4D8AE049BAF
:10247400DB0765D55FFA87FB594601F0FFFD10F0D5
:10248400010F81461ED020680123C8F8083094F853
:1024940006C0016C00F5306303EB4713BCF1010F78
:1024A4009A687BD112F0080F07D0B048814209D94D
:1024B400120407D54FF4004203E012F0200F48D075
:1024C40020229A6019F0080F0FD00823C8F80830AA
:1024D4002368A649186C03F5306303EB471388425D
:1024E4009A6870D82046FFF71FF919F0100F1CBF27
:1024F4001023C8F8083019F0020F14D073691A06B3
:1025040042BF6B6843F480636B609AF85732012BC7
:1025140006D100238AF8573259462046FFF75EF960
:102524000223C8F8083019F0200F1CBF2023C8F874
:10253400083019F4005F1CBF4FF40053C8F808308A
:10254400049B5B080137049308F120080AF1240A6C
:1025540088E712F0280FB5D1DFF810C2614501D920
:102564001204A7D41A69DAF87432C2F312029B1A5D
:10257400CAF868326FB9D4F864222AB904F29C42CA
:10258400012101F0A9FD04E0D4F860221A44C4F842
:10259400602259462046FFF7CDF893E7DFF8D0C113
:1025A400614506D1110485D49006F2D520229A60A3
:1025B400EFE7002FEDD1D4F86432002BE9D104F217
:1025C4009C423946DDE7110444BF4FF400429A604F
:1025D4002046FFF7A9F8A179012986D1206804F2E1
:1025E4009C4201F079FD80E7049BDB0740F1998070
:1025F4005FFA8AF31946059301F049FD10F0010FC3
:1026040080461FD06B6B01210AF00F0201FA02F21F
:1026140023EA02036B63CBF80810A17901290DD1D9
:10262400D7E9072313443B62BAF1000F06D1636A6A
:1026340023B9206804F29C4201F04EFD059920461E
:10264400FFF781F818F0080F1CBF0823CBF80830F7
:1026540018F0100F1CBF1023CBF8083018F0400FEF
:102664001CBF4023CBF8083018F0020F0FD051469E
:10267400304601F047F9FB7D012B05D10023059974
:10268400FB752046FFF7AEF80223CBF80830236829
:10269400069318F0800F44D0D7E909329A4240D803
:1026A400A3EB0208FB69984528BF9846069B03F5EF
:1026B400106308F1030803EB4A134FEA98080793E1
:1026C400079B996989B24145D7E9093227D39342D7
:1026D4000BD8069B0AF00F00D3F83428012181405F
:1026E40022EA0102C3F834281BE0A3EB0209FB69C8
:1026F400059A0698994528BF9946A3790093396AA3
:102704001FFA89F301F0F0FA3B6A4B443B62BB6A5F
:1027140009F103084B444FEA9808BB62D0E793429F
:10272400D7D9049B5B080AF1010A049324370BF1FF
:10273400200B82E52046FFF737F897E599601A6881
:1027440022F400121A60C3F80812D3F8002222F40B
:102754000012C3F80022D3F8002242F00062C3F84A
:102764000022039A013203922033A6E50A30544F23
:102774000A31544F6B6943F4005343F02B036B61EC
:102784002B6943F00B032B61ADE5B36923F08003A0
:10279400B361012704F257284FF024092379BB427F
:1027A4007FF6E1AD09FB07F318F80330012B03D1E1
:1027B400F9B22046FFF7C5FC0137EFE798F83C3043
:1027C400D9F80020012B09D1002A07DA67F07F012C
:1027D40088F83B30C9B22046FFF7B3FC013708F153
:1027E400240809F12009C7E5013124332030D7E555
:1027F400036870B5586A120419B902439A6200203A
:1028040070BD9C6A4E1E00EB14400024B44205D3F4
:102814003F3103EB810302435A60F0E704F14005C2
:1028240003EB850501346D6800EB1540EEE70368A2
:1028340000205962704770472DE9F341044640B3C4
:102844000368DE0710D423689D075BD42368190747
:1028540000F19D8023685A0700F1BD80A369002B15
:1028640040F0248100202CE08D4B9A6802F00C0289
:10287400042A07D09A6802F00C02082A0BD15B687C
:10288400590208D5864B1B689A03DCD56368002B74
:10289400D9D1012015E06368814DB3F5803F13D190
:1028A4002B6843F480332B60FFF784F97C4E054694
:1028B40033689B03C7D4FFF77DF9401B6428F7D91D
:1028C400032002B0BDE8F081B3F5A02F04D12B683A
:1028D40043F480232B60E3E72A6822F480322A60E1
:1028E4002A6822F480222A60002BDDD1FFF762F9E6
:1028F40006462B689F03A6D5FFF75CF9801B642866
:10290400F7D9DDE7664B9A6812F00C0F07D09A6886
:1029140002F00C02082A11D15B685D020ED4604AF1
:102924001368990702D5E368012BB2D113682169B2
:1029340023F0F80343EAC103136087E7E268594BC5
:10294400B2B101221A60FFF735F9554D06462B68DE
:102954009B0707D52B68226923F0F80343EAC203D7
:102964002B6073E7FFF726F9801B0228EFD9A7E74E
:102974001A60FFF71FF94A4E054633689F077FF533
:1029840065AFFFF717F9401B0228F6D998E762698B
:10299400444B82B10122C3F8802EFFF70BF9404E5D
:1029A4000546736F9B073FF555AFFFF703F9401BCF
:1029B4000228F6D984E7C3F8802EFFF7FBF8384ED7
:1029C4000546736F9F077FF545AFFFF7F3F8401B8C
:1029D4000228F6D974E7324B1A6C12F0805228D1CF
:1029E40001921A6C42F080521A641B6C03F08053FB
:1029F4000193019B01272C4D2B68D8051BD5A36897
:102A0400274D012B27D12B6F43F001032B67FFF7D1
:102A1400D1F8234E054641F28838336F9A0739D5E9
:102A2400002F3FF41BAF1E4A136C23F08053136432
:102A340014E70027DFE72B6843F480732B60FFF76C
:102A4400B9F806462B68D905D9D4FFF7B3F8801B2B
:102A54000228F7D934E7052B04D12B6F43F0040384
:102A64002B67D0E72A6F22F001022A672A6F22F02F
:102A740004022A67002BCAD1FFF79CF841F2883878
:102A840006462B6F9B07CBD5FFF794F8801B404578
:102A9400F7D915E7FFF78EF8401B4045BDD90FE77E
:102AA400003802400000474200700040374DAA68D9
:102AB40002F00C02082A3ED0022B354B4FF00002E4
:102AC4001A662BD1FFF776F806462B6899011FD4B6
:102AD400D4E907321343626A43EA8213E26A43EA9F
:102AE4000263A26A5208013A43EA02436B60284B2C
:102AF400264D01221A66FFF75DF804462B689A01F9
:102B04003FF5B0AEFFF756F8001B0228F6D9D7E61A
:102B1400FFF750F8801B0228D7D9D1E6FFF74AF80F
:102B240004462B689B017FF59DAEFFF743F8001B1D
:102B34000228F6D9C4E6012B3FF4ABAE6B68E26918
:102B440003F4800191427FF4A4AE216A03F03F02B2
:102B54008A427FF49EAE616A47F6C0721A40B2EBB5
:102B6400811F7FF496AEA26A520803F44031013A01
:102B7400B1EB024F7FF48DAEE26A03F07063B3EB06
:102B8400026F14BF012000209BE600BF0038024002
:102B940000004742134908B58B6803F00C03042B6B
:102BA4001CD0082B1CD14A684B68496813F4800375
:102BB40014BF0D480D48C1F3881118BF002302F05B
:102BC4003F02A1FB0001FDF7E3FA064B5B68C3F388
:102BD400014301335B00B0FBF3F008BD0248FCE79E
:102BE4000248FAE70038024000127A000024F40098
:102BF4002DE9F0410D46044610B90120BDE8F081ED
:102C0400434B1A6802F007028A4228D321688F07CF
:102C14002DD4C80740D43E4B1A6802F00702AA42DA
:102C240065D8226851076BD4130707D5394A21693F
:102C3400936823F4604343EAC1039360FFF7AAFF58
:102C4400344B354A9B68C3F30313D35CD840334BEE
:102C54001860334B1868FEF763FF0020CEE7CAB252
:102C64001A701B6803F007038B42C6D1CEE7294BC9
:102C740011F0040F1EBF9A6842F4E0529A600E07E6
:102C840042BF9A6842F460429A609A68A06822F04F
:102C9400F00202439A60BCE762681E4B012A1CD111
:102CA4001B6813F4003FA8D01A4EB36823F0030343
:102CB4001343B360FEF77EFF41F288380746B368DA
:102CC400626803F00C03B3EB820FA4D0FEF772FF2B
:102CD400C01B4045F3D9032090E7911E01291B68CE
:102CE40002D813F0007FDEE713F0020FDBE7EAB24D
:102CF4001A701B6803F00703AB427FF47EAF90E7C2
:102D04000449E0688B6823F4E05303438B608BE74A
:102D1400003C024000380240785D0008A801002011
:102D240084010020014B1868704700BFA8010020EF
:102D340070477047036870B5DD681E69B1070446C3
:102D44000DD5AA070BD56FF002021A610122027792
:102D54009B699B0769D000F0C0FC002323777107AF
:102D640010D56A070ED523686FF004021A61022297
:102D740022779B6913F4407F20465CD000F0ADFCC1
:102D84000023237733070FD528070DD523686FF069
:102D940008021A6104222277DB699907204650D081
:102DA40000F09BFC00232377F20610D5EB060ED52A
:102DB40023686FF010021A6108222277DB6913F48A
:102DC400407F204643D000F088FC00232377F0079F
:102DD40008D5E90706D523686FF001021A61204679
:102DE40000F058FC320608D52B0606D523686FF090
:102DF40080021A61204600F0A2F8700608D5690620
:102E040006D523686FF040021A612046FFF791FF50
:102E1400B20622D5AB0620D523686FF020022046E7
:102E24001A61BDE8704000F089B800F054FC2046F7
:102E3400FFF77EFF91E700F04EFC2046FFF778FF96
:102E44009EE700F048FC2046FFF772FFAAE700F077
:102E540042FC2046FFF76CFFB7E770BD1F4A0368CA
:102E640090420ED0B0F1804F0BD0A2F57C4290423C
:102E740007D002F58062904203D002F5806290424E
:102E840008D14A6823F070031343CA6823F44073DB
:102E940013430AE0124A9042F7D002F5806290424E
:102EA400F3D002F580629042EFD04A6923F08003A8
:102EB400134303608B68C3620B688362074B9842B9
:102EC40004BF0B690363012343610369DB0742BF4A
:102ED400036923F001030361704700BF0000014050
:102EE4000040014010B5044630B390F83D3003F083
:102EF400FF021BB980F83C2001F030FD022320685A
:102F040084F83D30211DFFF7A9FF012384F84630E2
:102F1400002084F83E3084F83F3084F8403084F850
:102F2400413084F8423084F8433084F8443084F8E3
:102F3400453084F83D3010BD0120FCE770477047F0
:102F4400026802F10C0353E8003F23F490730C323F
:102F540042E8003102680029F2D102F1140353E877
:102F6400003F23F0010302F1140C4CE80031002966
:102F7400F3D1036B012B0BD102F10C0353E8003F97
:102F840023F0100302F10C0C4CE800310029F3D1BA
:102F9400202380F8423000230363704790F84130C7
:102FA400202B10D189B182B1C2840162828401686C
:102FB40000232122436480F84120CA6842F0800241
:102FC400CA6018467047022070470120704708B550
:102FD400806B0023C385C38401F04EFD08BD704798
:102FE40090F84230222B07B542D181680268836A87
:102FF400B1F5805F3FD1016900293FD15268C2F326
:10300400080223F8022B8362C38D013B9BB2C38564
:10301400002B2DD10268D16821F02001D160D16844
:1030240021F48071D160516921F0010151612022A4
:1030340080F842204363026B012A026828D10363AB
:1030440002F10C0353E8003F23F0100302F10C0CCF
:103054004CE800310029F3D11368DB0605D5019152
:103064001368019353680193019B818DFFF7B7FFA8
:1030740003B05DF804FB39B9016929B95268D2B2C9
:103084001A70836A0133BEE7526802F07F02F7E7E1
:1030940001F0ECFCECE7000003681A6873B516074E
:1030A400D9685D6904460AD1960640F18B808D0685
:1030B40040F1888002B0BDE87040FFF791BF15F081
:1030C40001054BD012F0010F02F0040363D11BB1D0
:1030D400636C43F002036364930749D5636C43F064
:1030E4000403636412F0080F03D0636C43F0080315
:1030F4006364636C002B5FD0920604D58B0602D503
:103104002046FFF76DFF26687369626C03F0400385
:1031140002F0080253EA020520464FD0FFF710FFE1
:1031240073695E0645D5226802F1140353E8003F33
:1031340023F04003143242E800310029F3D1E06B5C
:10314400002836D08A4B0365FEF728FE002833D0CA
:10315400E06B036D02B0BDE87040184711F4907F36
:1031640030D012F0010F02F0040307D190070DD400
:103174001007BED501F020032B43B5E7CE050FD4CD
:10318400002BF3D19607F3D5002DA7D11507B0D5A1
:1031940011F0200FA8E7C80502D4002B98D1F1E75D
:1031A400636C560743F001036364EBD5002DDDD057
:1031B4008EE7204601F060FC02B070BD01F05CFCBB
:1031C4006564F9E7206B012840F09580D50640F14D
:1031D4009280C80640F18F80002201921A68019201
:1031E4005A680192019A5A6952064ED5E16B0A68EF
:1031F400526892B2002ADFD0A08D9042DCD9E285D9
:10320400CA69B2F5807F36D003F10C0252E8002F70
:1032140022F4807203F10C0040E800210029F3D16C
:1032240003F1140252E8002F22F0010203F114000A
:1032340040E800210029F3D103F1140252E8002FE1
:1032440022F0400203F1140040E800210029F3D1E8
:10325400202284F84220216303F10C0252E8002F5B
:1032640022F0100203F10C0040E800210029F3D100
:10327400E06BFEF755FD02236363E38DA18DC91A4C
:1032840089B22046FFF7ABFE96E7E28DE08DA18D73
:1032940080B292B200288FD0891A89B200298BD0CB
:1032A40003F10C0252E8002F22F4907203F10C0592
:1032B40045E800200028F3D103F1140252E8002F5E
:1032C40022F0010203F1140545E800200028F3D19F
:1032D400202284F84220206303F10C0252E8002FDC
:1032E40022F0100203F10C0545E800200028F3D178
:1032F40002236363C5E7160628D50D0626D594F880
:103304004120212A7FF458AFA168226AB1F5805F79
:1033140017D12169A9B932F8021BC1F30801596018
:103324002262E28C013A92B2E284002A7FF444AF32
:10333400DA6822F08002DA60DA6842F04002DA6089
:103344003AE7511C216212785A60EAE750067FF589
:1033540033AF4A067FF530AFDA6822F04002DA6014
:10336400202384F84130204601F083FB24E700BF8A
:10337400D32F000890F84030012B11D00268242389
:1033840080F84130D36823F00C0343F00803D36082
:10339400202380F84130002380F8403018467047DD
:1033A4000220704790F84030012B11D0026824238A
:1033B40080F84130D36823F00C0343F00403D36056
:1033C400202380F84130002380F8403018467047AD
:1033D4000220704790F8412090F842001043704753
:1033E400C2850023828502694364222380F8423027
:1033F400816203681AB1DA6842F48072DA605A6949
:1034040042F001025A61DA6842F02002DA600020D8
:10341400704770B490F84260202E06D141B13AB1A1
:103424000024046370BCFFF7DBBF022070BC70474C
:103434000120FBE7836810B504462BB10322014643
:1034440098470023C4E9023310BD836810B50446CD
:1034540013B1032201469847204610BD174B9842EA
:103464001BD0B0F1804F1AD0A3F57C43984218D0FA
:1034740003F58063984216D003F58063984214D014
:1034840003F59A33984212D003F58063984210D022
:1034940003F5806398420ED0FEE7002070470120B8
:1034A40070470220704703207047042070470520AE
:1034B4007047062070470720704700BF0000014096
:1034C400024670B5044652F8100FFFF7C7FF0546D1
:1034D400104601F073F9094A002342F8253004F13B
:1034E4006006E36004F1B005B54204D0103D2846FF
:1034F400FFF7ABFFF8E7204670BD00BF640F002064
:10350400F8B504460846FFF7A9FF236903B1FEE7AF
:103514001B4D84F82C3004F10C0245F8202004F1F2
:1035240010060E22C4E90C33C4E90E33C4E9103387
:10353400C4E916232161A36484F84C3084F84D3027
:10354400E460304601F0A6F804F1600504F1B00728
:1035540028461035FFF76EFFBD42F9D10023C4E9B8
:1035640000334FF6FF72C4E90632C4E90833A3609E
:1035740063618023A3623046BDE8F840FFF7B2BC24
:10358400640F002010B5074C206810B10430FFF719
:10359400D1FBA06920B1BDE810400430FFF7CABBDD
:1035A40010BD00BF640F0020034B186810B1043035
:1035B400FFF7C0BB704700BF640F0020034B58687F
:1035C40010B10430FFF7B6BB704700BF640F002092
:1035D400034B986810B10430FFF7ACBB704700BFD1
:1035E400640F0020034BD86810B10430FFF7A2BB6E
:1035F400704700BF640F0020034B186910B10430FA
:10360400FFF798BB704700BF640F0020034B586955
:1036140010B10430FFF78EBB704700BF640F002069
:10362400034BD86910B10430FFF784BB704700BF67
:10363400640F00200022C0E90022C0E90222704782
:10364400F8B504460E4600F1600500F1B0072846BF
:103654001035FFF7EFFFBD42F9D100232046236167
:103664003146FFF74DFF2046F8BD826810B50AB910
:1036740001F05AFFBDE81040C368184708B500B907
:10368400FEE701F005F80068836E13B16030FFF7C0
:10369400ECFF08BDFFF7F2BF10B500B9FEE7037FEA
:1036A400013B072B10D8DFE803F004140F100F0FB1
:1036B4000F12012400F0ECFF0068063400EB041044
:1036C40083680BB1FFF7D1FF10BD0324F2E7042494
:1036D400F0E70224EEE7FFF7DFBFFFF7DDBF82B0BC
:1036E400002302460193019B01330193019BB3F133
:1036F400706F15D81369002BF5DA00230193136951
:1037040043F001031361019B01330193019BB3F166
:10371400706F05D8106910F00100F4D102B0704741
:103724000320FBE784B038B505AD85E80E009DF8AD
:103734001930012B044627D1836B23F48033836330
:10374400C36823F4840323F04003C360C36823F4F1
:103754004013C3609DF82030012B02BFC36843F4BB
:103764008013C360FFF7BBFF9DF81630012B07D110
:10377400A36843F00603A360A36843F02003A36097
:10378400BDE8384004B07047C36843F04003C360E9
:10379400FFF7A5FF9DF81D3023B9A36B43F48033D5
:1037A400A363E1E7A36B23F48033F9E7022A4AD148
:1037B400274B284A0B44934239D9274B274A0B44B9
:1037C400934236D9264AA1F57403A3F510539342C4
:1037D40031D9244AA1F18373A3F5E74393422CD34F
:1037E400214B224A0B44934229D9214B214A0B44B1
:1037F400934226D3204B214A0B44934223D3204A9D
:10380400A1F1B773A3F5585393421ED31D4B1E4A1F
:103814000B4493422CBF06230723C26822F4705240
:10382400C260C26842EA8323C360002070470F234A
:10383400F3E70E23F1E70D23EFE70C23EDE70B236A
:10384400EBE70A23E9E70923E7E70823E5E700BFF5
:10385400405327FFFF340C00401E1BFF3F420F0064
:103864007F4F120020D6130060B6E5FE5FE316001A
:1038740000D3CEFE40771B00C05BB3FEC091210095
:1038840020753800E05459FEE09C4100836843F001
:103894000103836000207047836823F00103836081
:1038A4000020704738B5C368012923F0C04305469A
:1038B4000C46C36014D1C36843F00053C3600024B2
:1038C4000A20FEF77DF96B69D90704F10A0402D4D2
:1038D400C82CF5D1C824A4F1C8035842584138BDB6
:1038E40071B9C36843F08043C3600A20FEF768F9E6
:1038F4006B69DA0704F10A04EDD5C82CF5D1E9E7C0
:103904000120ECE782B0002302460193019B0133BE
:103914000193019BB3F1706F15D81369002BF5DA8D
:103924008901002341F0200101931161019B0133BE
:103934000193019BB3F1706F05D8106910F020005A
:10394400F4D102B070470320FBE782B000230246A3
:103954000193019B01330193019BB3F1706F13D861
:103964001369002BF5DA0023019310231361019BE3
:1039740001330193019BB3F1706F05D8106910F006
:103984001000F4D102B070470320FBE7D0F80038F0
:103994001943C0F8001800207047000084B0F8B53F
:1039A400044607A880E80E0000239DF81C509DF8EB
:1039B4002660194603F1400204EB820201330F2B07
:1039C4005160F7D104F50067002E4FD17B6843F0B6
:1039D40002037B60A36B43F40013A363A36B23F480
:1039E4000023A363A36B23F48023A3630023C4F8FD
:1039F400003E9DF82130012B42D19DF81F10002973
:103A04003CD12046FFF7C2FF10212046FFF77AFF82
:103A140001462046FFF799FF0843C0B2002300384F
:103A24003B6118BF01207B6104F51062FB61002D2E
:103A34004FD0D4F80019994224DA4FF00061C4F849
:103A4400001900214FF67F3C01339D421161C2F8F9
:103A540008C002F1200218D9D2F800E0BEF1000F2C
:103A640010DA4FF0904EC2F800E0EDE7A36B23F4B8
:103A74000013A363A36B43F40023B6E71946C0E71E
:103A84000321BEE700211160DBE7D4F8002B002AF4
:103A940004F5306319DA4FF00062C4F8002B0022F9
:103AA40000214FF67F3C013295421961C3F808C0EA
:103AB40003F120030DD9D3F800E0BEF1000F05DABD
:103AC4004FF0904EC3F800E0EDE7002200211960AA
:103AD400E6E73B6923F480733B610023A3616FF045
:103AE400804363619DF81E301BB9A36943F0100342
:103AF400A361A2690A4B1343A3619DF822301BB151
:103B0400A36943F00803A361012E01BFA36943F035
:103B1400804343F00403A361BDE8F84004B0704758
:103B240000383C80D0F8083813F0060004D013F0B5
:103B3400020F14BF02200F20704730B50C78012209
:103B440004F00F05AA404D78012D00F5006300EB49
:103B5400441019D1DD692A43DA61D0F800391A0416
:103B640010D48A68D0F80059C2F30A030A792B43A7
:103B740043EA824343EA845343F0805343F40043CB
:103B8400C0F80039002030BDDC6944EA0242DA6141
:103B9400D0F8003B1B04F5D48B68D0F8002BC3F39A
:103BA4000A0313430A7943EA824343F0805343F4FC
:103BB4000043C0F8003BE5E710B50A7849780129CD
:103BC40000EB421300F5006002F00F0222D1D3F89B
:103BD400001900290BDAD3F8001941F00061C3F889
:103BE4000019D3F8001941F08041C3F80019C46BDF
:103BF400012101FA02F224EA0204C463C16921EA40
:103C04000202C261D3F80019144A0A40C3F8002919
:103C1400002010BDD3F8001B00290BDAD3F8001BD9
:103C240041F00061C3F8001BD3F8001B41F0804150
:103C3400C3F8001BC46B4FF4803101FA02F224EA8A
:103C44000204C463C16921EA0202C261D3F8001B01
:103C5400034A0A40C3F8002BDAE700BF007833ECCC
:103C64000078F3EF82B000234A7801930B78012A9D
:103C74004FEA43131ED100F51060C118C258002A40
:103C840002DB002002B07047C25842F00062C2500A
:103C9400C25842F08042C25042F21072019B01337A
:103CA4000193019B934201D90120EBE70B68002BA0
:103CB400F4DBE6E700F53060C118C258002AE0DA08
:103CC400C25842F00062C250C25842F08042C25010
:103CD40042F21072019B01330193019B9342E3D89A
:103CE4000B68002BF6DBCCE710B59DF8084044B90F
:103CF400033301329B0800EB023001EB83038B4258
:103D040001D1002010BD51F8042B0260F7E7000038
:103D14002DE9F3414B780C690F79DFF8F0E1DFF816
:103D2400F08116460A78012B00EB421540F097808B
:103D340005F5106CDCF8103074BB03EA0E03CCF804
:103D44001030DCF8103043F40023CCF81030DCF8E9
:103D5400103003EA0803012ECCF8103057D1CB6998
:103D64000BB1CCF81430012F0CD1D0F8083813F46F
:103D7400807FD5F800390CBF43F0005343F08053E3
:103D8400C5F80039D5F8003943F00443C5F80039C3
:103D9400002002B0BDE8F08103EA0803CCF810303B
:103DA400DCF8103003EA0E03CCF810308B687AB9D3
:103DB4009C4288BF0B61DCF8103043F40023CCF83C
:103DC40010300B69DCF81040C3F312032343C2E73D
:103DD4001C44013CB4FBF3F44B4BDCF810E01FFA39
:103DE40084F803EAC44444EA0E04012FCCF81040DA
:103DF400E7D1DCF8103023F0C043CCF81030DCF805
:103E040010404FEA487303F0C0432343D7E7D5F883
:103E14000039012F43F00443C5F800390B690BD076
:103E2400002BB5D0D0F8341802F00F0201239340D0
:103E34000B43C0F83438ABE7D0F8084814F4807F5B
:103E4400D5F800490CBF44F0005444F08054C5F840
:103E540000490096C9689BB2FFF746FF98E7D5F87A
:103E6400103B03EA0803C5F8103BD5F8103B03EAFE
:103E74000E0305F5306CCCF810308B685ABB04B1D6
:103E84000B610B62DCF81020C3F312031343CCF86C
:103E94001030DCF8103043F40023012ECCF810303D
:103EA40003D1CB680BB1CCF81430012F0CD1D0F86E
:103EB400083813F4807FD5F8003B0CBF43F000535F
:103EC40043F08053C5F8003BD5F8003B43F004436E
:103ED400C5F8003B5CE7002CD4D01C440A4ADCF84B
:103EE40010E0013CB4FBF3F4A4B202EAC44263431D
:103EF40042EA0E020B62CCF81020DCF81020C3F367
:103F040012031343C9E700BF0000F81FFFFF07E0D7
:103F14000000F8FF034670B50020940803F58055AF
:103F240002F00302A04210D301EB840062B103F556
:103F340080531C680023D90024FA01F1C1540133D1
:103F440099B28A42F7D1104470BD2E6841F82060BE
:103F54000130E7E74A780B78012A00EB431012D1CD
:103F6400D0F80029002A06DB2BB1D0F8003923F061
:103F74008043C0F80039D0F8003943F40013C0F886
:103F8400003900207047D0F8002B002A06DB2BB143
:103F9400D0F8003B23F08043C0F8003BD0F8003B4E
:103FA40043F40013C0F8003BEBE70B784A7800EBCE
:103FB40043100B79012AA3F10203DBB20FD1D0F82D
:103FC4000029012B22F40012C0F8002905D8D0F8EA
:103FD400003943F08053C0F8003900207047D0F80E
:103FE400002B22F40012012BC0F8002B9EBFD0F846
:103FF400003B43F08053C0F8003BEEE7D0F80038B4
:1040040023F4FE63C0F80038D0F80038090101F445
:10401400FE611943C0F8001800207047D0F8003E34
:1040240023F00303C0F8003ED0F8043823F0020361
:10403400C0F8043800207047D0F8003E23F0030392
:10404400C0F8003ED0F8043843F00203C0F8043846
:10405400002070474269806910407047D0F81838D2
:1040640000F50060C0691840000C7047D0F818389B
:1040740000F50060C069184080B2704700EB411140
:1040840000F50060D1F8082B406910407047D0F863
:104094001028D0F8343800EB411001F00F01CB4068
:1040A40000F51060DB018068DBB2134318407047F1
:1040B400406900F001007047D0F8003923F4FF6331
:1040C40023F00703C0F80039D0F8043843F48073B0
:1040D400C0F804380020704730B5056C104CA54278
:1040E40000F5306303D9D0F8004B002C16DB002414
:1040F4001C611C6944F400241C611C6944F018040C
:104104001C611C69012944F0C0441C6101BF5A614F
:10411400D0F8003B43F08023C0F8003B002030BDC2
:104124000A30544F01F00ABA01F010BA86B00023E5
:10413400052853D8DFE800F003111E2B38450093FF
:10414400274B28481A6B42F001021A631B6B03F0D9
:1041540001030093009B06B070470193204B224853
:104164001A6B42F002021A631B6B03F00203019301
:10417400019BF0E702931A4B1C481A6B42F00402AD
:104184001A631B6B03F004030293029BE3E703939C
:10419400134B17481A6B42F008021A631B6B03F0A7
:1041A40008030393039BD6E704930D4B11481A6B42
:1041B40042F010021A631B6B03F010030493049B78
:1041C400C9E70593064B0C481A6B42F080021A6348
:1041D4001B6B03F080030593059BBCE70020BAE743
:1041E400003802400000024000040240000802407F
:1041F400000C024000100240001C0240F8B51449B3
:10420400144E074600F005FAFFF728F956F8203057
:10421400044673B9B020FFF785FF0D4905463846BB
:1042240000F0F7F901462846FFF70AFA56F8243059
:104234001D6056F824301C6844B12046FFF740F94D
:104244002046B021BDE8F840FFF76EBFF8BD00BFBF
:10425400445A0008640F0020FDF7ACBC704708B551
:10426400FDF79CFCFDF747FDFFF7F8FF08BD70471D
:1042740084B0114B00220192196C41F080511964F1
:10428400196C01F08051019101990292596C41F429
:1042940080415964596C01F480410291029903925E
:1042A4001A6B42F480521A631B6B03F4805303931A
:1042B400039B04B0704700BF003802400C4BD3F896
:1042C400FC20D2015EBFD3F8FC2042F08072C3F818
:1042D400FC20084B00225A601A6842F001021A605E
:1042E40000BF00BF00BF5868B0FA80F040097047B3
:1042F40000ED00E0001000E008B5FFF7B9FFFFF79C
:10430400DDFFFDF731FCFFF7B2FFFDF7B7FB034814
:10431400FDF7F6FCBDE80840FDF7A6BBA0010020B0
:104324000023C0E90033C0E90233704700230128A9
:1043340003F101020AD11422DBB25343054A181DCA
:104344001044816829B11A44136918474008134678
:10435400EDE77047840F00200120FDF731BD0220F6
:10436400FDF72EBD0420FDF72BBD0820FDF728BD69
:104374001020FDF725BD38B505242025A8B2FDF78A
:104384001FFD013C4FEA4505F8D138BD38B5062478
:104394004FF48065A8B2FDF713FD013C4FEA4505D3
:1043A400F8D138BD344A104608B5062300F8043B5A
:1043B400FFF7B6FF072302F118001375FFF7B0FFEC
:1043C400082302F12C0082F82830FFF7A9FF092303
:1043D40002F1400082F83C30FFF7A2FF0A2302F109
:1043E400540082F850301721FFF79AFF02F1680059
:1043F40082F86410FFF794FF02F17C0082F87810D1
:10440400FFF78EFF02F1900082F88C10FFF788FF0F
:1044140002F1A40082F8A010FFF782FF02F1B800B5
:1044240082F8B4102821FFF77BFF02F1CC0082F858
:10443400C810FFF775FF02F1E00082F8DC10FFF707
:104444006FFF02F1F40082F8F010FFF769FF02F544
:10445400847082F80411FFF763FF02F58E7082F80E
:104464001811FFF75DFFBDE8084002F5987082F867
:104474002C11FFF755BF00BF840F002038B5054C41
:10448400A4F5A075143C201DFEF7DFFFAC42F9D162
:1044940038BD00BFC410002030B591FAA1F391FAE1
:1044A400A1F1B3FA83F3C4685B000325B1FA81F187
:1044B40005FA03F3490024EA03038A401A43C2605D
:1044C40030BD431C04D00C3151F80C3C5A1C01D1B2
:1044D40000207047834201F10C01F5D1012070479F
:1044E400F8B5471C06460D4600D1FEE700F00F0262
:1044F400414BC0F3031053F82240FFF717FE94FA20
:10450400A4F3B3FA83F3876803225B0002FA03F38C
:1045140094FAA4F2B2FA82F227EA030752000323C0
:1045240093403B4305F007018360032903D8DFE888
:1045340001F05F032C61FEE7012394FAA4F2B2FABE
:1045440082F206685200032707FA02F226EA0206FC
:1045540094FAA4F2B2FA82F252009340013933433E
:104564000129036005D843682A074CBF2343A343AA
:104574004360C5F30112012A02D0022A18BF0022A7
:104584002146BDE8F840FFF787BFC5F306227F2A1E
:1045940001D10223D1E7360716D5230A93FAA3F6ED
:1045A400B6FA86F6476A93FAA3F3B6004FF00F0CF7
:1045B400B3FA83F30CFA06F69B0027EA060602FA1E
:1045C40003F333434362E4E794FAA4F3B3FA83F3C3
:1045D400066A9B000F2707FA03F326EA030694FAF8
:1045E400A4F3B3FA83F39B009A4032430262D0E708
:1045F4000023A2E70323A0E7385D00080B685A1CD8
:1046040001D100207047834201D1486870470C31C2
:10461400F4E7431C01D0FFF7F1BF002070474B685B
:1046240013B94FF0FF307047834201D108687047D7
:104634000C31F4E708B1FFF7F2BF4FF0FF307047D9
:104644001049D1F8883043F47003C1F888300E4B18
:104654001A6842F001021A6000229A601A6822F075
:10466400847222F480321A60084A5A601A6822F46A
:1046740080221A604FF43F02DA604FF000638B60CF
:10468400704700BF00ED00E0003802401030002405
:10469400043870470368414A934288B00DD100231F
:1046A40000933F4B5A6C42F001025A645B6C03F076
:1046B40001030093009B08B07047B3F1804F0CD105
:1046C40000230193364B1A6C42F001021A641B6CEE
:1046D40003F001030193019BEDE7324A93420CD1AD
:1046E400002302932E4B1A6C42F002021A641B6CD4
:1046F40003F002030293029BDDE72B4A93420CD1A1
:1047040000230393264B1A6C42F004021A641B6CB8
:1047140003F004030393039BCDE7244A93420CD193
:10472400002304931E4B1A6C42F008021A641B6C9B
:1047340003F008030493049BBDE71D4A93420CD184
:1047440000230593164B5A6C42F480325A645B6C16
:1047540003F480330593059BADE7164A93420CD1CD
:10476400002306930E4B5A6C42F400325A645B6C7D
:1047740003F400330693069B9DE70F4A93429AD1B4
:1047840000230793064B5A6C42F480225A645B6CF4
:1047940003F480230793079B8DE700BF00000140CB
:1047A400003802400004004000080040000C0040B3
:1047B4000040014000440140004801400368244A8D
:1047C400934206D102F59C32536C23F001035364E7
:1047D4007047B3F1804F05D11E4A136C23F00103D7
:1047E400136470471C4A934205D102F50D32136CD1
:1047F40023F00203F4E7194A934205D102F50C327F
:10480400136C23F00403EBE7154A934205D102F538
:104814000B32136C23F00803E2E7124A934205D1EA
:1048240002F57842536C23F48033D0E70E4A934266
:1048340005D102F57442536C23F40033C7E70B4AE5
:104844009342C5D102F57042536C23F48023BEE732
:10485400000001400038024000040040000800400D
:10486400000C004000400140004401400048014069
:10487400431C21D0184B984221D00BD8A3F50063D8
:1048840098421ED003F5806398421CD0B0F1804F4B
:104894001BD0FEE7114B984219D008D8A3F58843E2
:1048A400984214D003F58043984212D0F1E70C4BA0
:1048B4009842EED11A2070476FF00D0070473220F5
:1048C40070471D2070471E2070471C207047192018
:1048D40070471820704700BF000C0040004401409E
:1048E40000480140431C21D0194B984221D010D8D4
:1048F400A3F5784398421ED007D8B0F1804F1CD05E
:10490400A3F5806398421AD0FEE7124B984218D060
:10491400FAE7114B984216D003F58063984214D0FD
:10492400A3F500639842EFD1182070476FF00D0093
:1049340070471B2070471E2070471C2070471D20A5
:10494400704732207047192070471A20704700BF03
:1049540000000140000C00400044014038B5FFF75E
:1049640099FE04460068FFF783FFD4E91212FDF7AD
:104974004DF92068FFF77CFFFDF77AF922681046AD
:10498400FFF7B0FF05461046FFF772FF85420BD0D4
:104994002846D4E91212FDF739F92068FFF7A2FF7F
:1049A400BDE83840FDF764B938BD000008B5074BD1
:1049B40090F8652053F82200FEF70CFD00F0220069
:1049C400A0F122035842584108BD00BFC410002082
:1049D40008B5074B90F8652053F82200FEF7FAFC5F
:1049E40000F02100A0F121035842584108BD00BF46
:1049F400C410002038B515460446B8B1016590F9D5
:104A04006400FDF743F9E36EB4F8761094F865009A
:104A140013FA81F1064BAAB253F82000FEF7BEFA4E
:104A240094F96400BDE83840FDF722B938BD00BFF1
:104A3400C410002048B1836D013306D190F865207D
:104A4400024B53F82200FEF795BC7047C4100020B7
:104A540048B1836D013306D190F86520024B53F8B9
:104A64002200FEF79FBC7047C4100020836C0438FA
:104A74001847C36C0438184730B5044650F8043955
:104A84001D6815F0010585B012D0002200921A6845
:104A940000925B680093009BFFF788FF40BB0122F4
:104AA40004F16201204605B0BDE83040FEF7B1BC18
:104AB400196811F0020106D001951A6801925B6829
:104AC4000193019BE8E71A6812F0040206D00291F0
:104AD4001A6802925B680293029BDDE71968090772
:104AE400DAD503921A6803925B680393039BD3E7B6
:104AF40005B030BD08B52520FDF7EEF8024B186867
:104B0400BDE80840FEF7C8BAC410002008B5262046
:104B1400FDF7E2F8034B586818B1BDE80840FEF70A
:104B2400BBBA08BDC410002008B54720FDF7D4F86F
:104B3400024B9868BDE80840FEF7AEBAC4100020E6
:104B44000A490346086810B50344EFF30882934208
:104B540005D9074B0C221A604FF0FF3010BD054AEF
:104B6400054C121B9342F4D20B60F7E7AC01002012
:104B7400401300200000012000040000FEE70000B4
:104B8400024B16221A604FF0FF307047401300208A
:104B94000120704710B5084C4FF416512046FBF71E
:104BA400EBFB0649204600F033F8BDE81040012134
:104BB4002C2000F081B800BF1C020020885D000892
:104BC40008B52C2000F0D6F80649074800F036F85E
:104BD400064B32221A70BDE808404FF47A7000F098
:104BE4000BB900BFA55D00081C02002000020020D4
:104BF40070B505460C46084649B1FBF7E3FA2B6845
:104C04000246214628465B68BDE87040184770BDDF
:104C140008B5FFF7EDFF08BD08B50249FFF7E8FF47
:104C240008BD00BFAF5D000838B50546FFF7E0FFDB
:104C340004462846FFF7F0FF204438BDFFF7F4BFD1
:104C440008B50320FCF7D0FFBDE8084000F0FCB82D
:104C540008B5AFF30080FFF79DFFFFF7B1FF00F049
:104C6400D9F8FAE7DFF834D0FFF7EAFC0C480D492D
:104C74000D4A002302E0D458C4500433C4188C42B3
:104C8400F9D30A4A0A4C002301E013600432A24219
:104C9400FBD300F06DFDFFF7DBFF70470000012040
:104CA4000000002000020020045E00080002002032
:104CB40048130020FEE70000C3B2312B2DE9F04178
:104CC4000D462AD8274A52F8233000F4E0641C43E6
:104CD400621C44D0244EC4F3031704F00F0856F8A2
:104CE400273023FA08F3DB0710D520492046FFF7C5
:104CF400E8FB10B12046FFF781FA56F8273001226D
:104D040002FA08F223EA020346F82730052D15D8E3
:104D1400DFE805F015211B1D1F2300F0C002C02A87
:104D24001DD1CF2B1BD8124B00F03F0200F4E064DE
:104D340053F822200B4B53F82230C8E7FEE700213A
:104D44002046BDE8F041FFF7CBBB1021F8E7202156
:104D5400F6E70321F4E70121F2E70921F0E7BDE8D2
:104D6400F08100BF705C0008D0100020445A000895
:104D7400305C0008C3B2312B08D81A4A52F82330E9
:104D840000F4E0601843421C13D1704700F0C002E5
:104D9400C02A26D1CF2B24D8134B00F03F0200F4B5
:104DA400E06053F822200F4B53F822301843431C81
:104DB40017D0C0F30313052B10D80C4A00F00F00D2
:104DC40052F823200A4B516953F8203003EA0100BA
:104DD40023EA010343EA00439361704700235B69BC
:104DE400FFDE7047705C0008305C0008880100201A
:104DF400385D0008FFF730BA38B5044648B1FFF70C
:104E04002BFA054600F022F8FFF726FA431BA342CB
:104E1400F8D338BD08B5084B2BB1084800F017F893
:104E240008B1AFF30080064B2BB10648FBF728FA14
:104E340008B1AFF3008008BD00000000E8100020B6
:104E4400000000001C020020FFF756BA7047B0F8BB
:104E54000831B0F80421981A00F03F007047B0F808
:104E64000831B0F804219BB293421ABFD0F8FC3049
:104E7400985C4FF0FF30704790F80631B0F80A01A3
:104E8400C0B2834227BFC3F13F03C018C01A00F168
:104E9400FF30704707B503688DF807105B6801227F
:104EA4000DF10701984703B05DF804FBB0F87620D4
:104EB400816F11FA82F202F03F0210B5A0F8762059
:104EC400B0F87610B0F8722089B28A421AD0B0F8DD
:104ED4007640B0F87610A4B24032121B544289B224
:104EE40004F03F0402F03F02C1F1400158BF6242A6
:104EF4008A4228BF0A4682670349FFF77BFD4FF0C9
:104F0400FF3010BD0020FCE7B14E000803682DE916
:104F1400F0479B6804468846164698470123237445
:104F2400D4F8EC30B4F8069101338246C9F1400953
:104F340004F1940708D194F810312BB1002384F8BC
:104F440010313846FFF776FD236820469B68984762
:104F54000028F9D035464D4523D8554521D8B4F815
:104F64000621D4F800015319402B10442FD82A46A7
:104F7400414600F023FCA946B4F806311D4405F06F
:104F84003F05A4F806513846FFF722FD30B917490A
:104F9400C4F80C914A463846FFF72CFD3046BDE86C
:104FA400F087D145236828BFD1464A4641465B680D
:104FB40020469847236820469B689847A5EB090537
:104FC400C844B4F806918246C9F14009C3E7C2F166
:104FD40040094A46414600F0F1FBD4F80001A5EB34
:104FE400090208EB090100F0E9FBC5E7B14E00082E
:104FF400C0F8F030009BC0F8F430914208BF4FF085
:10500400FF3100F11103C0E93A21C0F8FC3000F18E
:1050140051020023A0F80831C0E94023A0F80A3166
:105024007047037C70B504460D46A3B1FCF7C2FD7E
:105034000646B4F80621B4F80A319BB29A420AD063
:10504400002DF8D0FCF7B6FD801B8542F1D8B4F8EA
:105054000A31A4F8063170BD0021FFF7E2BF000059
:10506400CBB2312B08D80E4A52F8233001F4E06158
:105074001943C0F8EC10704701F0C002C02A0CD1EB
:10508400CF2B0AD8074B01F03F0201F4E06153F83B
:105094002220034B53F82230EAE74FF0FF31E8E7D0
:1050A400705C0008305C0008CBB2312B08D80E4A83
:1050B40052F8233001F4E0611943C0F8E810704756
:1050C40001F0C002C02A0CD1CF2B0AD8074B01F043
:1050D4003F0201F4E06153F82220034B53F82230DD
:1050E400EAE74FF0FF31E8E7705C0008305C000845
:1050F40073B54FF47A7316460022C0E901231B4BA3
:1051040003604FF0FF33C0F8EC30194B9A68194B29
:105114000D460446184953F82200FFF77AFA8542EF
:1051240016D1C3212046FFF79BFFC221FFF7BCFF26
:10513400012E4FF0FF3308BFC4F8EC300093204633
:10514400D4E93A214FF0FF33FFF752FF02B070BDAC
:105154000A492846FFF76EFA0749C4F8EC002846C6
:10516400FFF768FAC4F8E800E2E700BFBC5D000896
:10517400305C0008705C0008FC590008B459000851
:10518400D0F8EC30013310B504460ED10368DB6867
:10519400984794F8103143B9012384F8103104F18D
:1051A4009400BDE81040FFF753BC10BD10B5044691
:1051B400FFF7E6FFB4F80821B4F8043192B29A423A
:1051C4001FBFD4F8FC20D05C013303F03F0314BFAD
:1051D400A4F804314FF0FF3010BD00000249034829
:1051E4000022FFF785BF00BF00440040E810002004
:1051F40010B50446FFF7FEFDE060236820465B69B6
:105204009847002808DAFFF7F5FDE368C01AA36899
:105214009842F2D34FF0FF3010BDF8B507460D4663
:105224008E180C46B44201D1601BF8BD3846FFF716
:10523400DFFF031EF8DB04F8013BF3E72DE9F0413F
:105244000746884616461D4673B100243846FFF7C4
:10525400CFFF031E05DB434503D033550134A5427C
:10526400F4D12046BDE8F0811C46FAE72DE9F04769
:10527400089D0C46002B4ED194468C458646B2FAC6
:1052840082F262D94AB1C2F12003914020FA03F3B9
:105294000CFA02FC194300FA02FE4FEA1C471FFAFB
:1052A4008CF6B1FBF7F44FEA1E4307FB141143EAF3
:1052B400014304FB06F199420AD91CEB030304F1F0
:1052C400FF3080F01281994240F20F81023C634426
:1052D400591A1FFA8EF3B1FBF7F007FB101143EADA
:1052E400014300FB06F69E420AD91CEB030300F1BE
:1052F400FF3180F0FC809E4240F2F9806344023822
:105304009B1B40EA044000211DB1D3400022C5E9A3
:105314000032BDE8F0878B4205D90DB1C5E9000123
:1053240000210846F5E7B3FA83F1002946D1A342E8
:1053340002D39042C0F0F080861A64EB030301208C
:10534400002DE6D0C5E90063E3E7002A40F0908031
:10535400A1EB0C044FEA1C481FFA8CF70121B4FBA3
:10536400F8F64FEA1E4308FB164443EA044307FBDE
:1053740006F0984208D91CEB030306F1FF3402D26D
:10538400984200F2CD8026461C1A1FFA8EF3B4FB15
:10539400F8F008FB104443EA044300FB07F79F427C
:1053A40008D91CEB030300F1FF3402D29F4200F240
:1053B400B0802046DB1B40EA0640A5E7C1F1200689
:1053C4008B4022FA06F71F4320FA06FC04FA01F385
:1053D40043EA0C03F44000FA01F8380C4FEA13498D
:1053E400B4FBF0FE1FFA87FC00FB1E4449EA0444A8
:1053F4000EFB0CF9A14502FA01F20AD93C190EF18F
:10540400FF3A80F08480A14540F28180AEF1020E23
:105414003C44A4EB09041FFA83F9B4FBF0F300FB4A
:10542400134449EA044403FB0CFCA44507D93C1982
:1054340003F1FF3067D2A44565D9023B3C4443EAFB
:105444000E40A0FB0293A4EB0C049C42CE469C4667
:1054540051D34ED055B1B8EB0E0364EB0C0404FAEF
:1054640006F6CB401E43CC40C5E90064002150E75A
:10547400C2F1200320FA03F10CFA02FC24FA03F32C
:1054840094400C434FEA1C4800FA02FE1FFA8CF7C2
:10549400B3FBF8F008FB1031230C43EA014300FB93
:1054A40007F1994208D91CEB030300F1FF362CD213
:1054B40099422AD9023863445B1AA4B2B3FBF8F1C7
:1054C40008FB113344EA034401FB07F3A34208D960
:1054D4001CEB040401F1FF3613D2A34211D90239A3
:1054E4006444E41A41EA004139E70446F0E6084618
:1054F40006E7C845AED2B9EB020E63EB070C0138E0
:10550400A8E73146EDE7034699E73046D4E7D646A7
:105514007FE7634402384DE70646234608460FE713
:10552400023E634430E700BF08B500F000F808B558
:10553400062000F0F1F80120FFF720FB024B0146A2
:10554400186800F02DB800BFB0010020024B0146DE
:10555400186800F041B900BFB001002070B50F4ECB
:105564000C463168054611B900F0F2F83060214666
:10557400284600F0EDF8431C03D14FF0FF342046D9
:1055840070BDC41C24F00304A042F8D0211A28469C
:1055940000F0DEF80130F2D1EFE700BF0012002086
:1055A4002DE9F843CD1C25F0030508350C2D38BF33
:1055B4000C25002D064601DBA94204D90C233360D7
:1055C4000020BDE8F883DFF8D48000F069F8D8F84B
:1055D40000301C4644BB29463046FFF7BFFF431C3E
:1055E400044658D1D8F800402746002F43D1002C58
:1055F4004BD023683946304604EB030900F0A8F881
:10560400814542D121686D1A29463046FFF7A6FF2D
:1056140001303AD023682B442360D8F800305A680C
:1056240062BBC8F800700FE02268521B20D40B2A1A
:1056340017D96119A342256018BF5960636808BF70
:10564400C8F8001062514B60304600F02FF804F1A6
:105654000B00231D20F00700C21A1CBF1B1AA35005
:10566400AFE76268A3420CBFC8F800205A60EBE7BA
:1056740023466468AEE73C467F68B6E71A465B6833
:10568400A342FBD100235360DEE70C233360304692
:1056940000F00CF894E70560D6E700BF0412002080
:1056A400014800F089B800BF44130020014800F00D
:1056B40084B800BF4413002002440346934200D13F
:1056C400704703F8011BF9E71F2938B505460C4656
:1056D40004D9162303604FF0FF3038BDC26B12B1FA
:1056E40052F821304BB9284600F030F822460146E2
:1056F4002846BDE8384000F017B8012B0AD0591CE1
:1057040003D1162303600120E7E7002142F82410A7
:10571400204698470020E0E7024B01461868FFF74F
:10572400D3BF00BFB001002038B5074D00230446A5
:10573400084611462B60FFF723FA431C02D12B685D
:1057440003B1236038BD00BF40130020FFF720BA27
:1057540038B5064D0023044608462B60FFF7F0F9E0
:10576400431C02D12B6803B1236038BD40130020D1
:1057740070B50D4D0D4C641BA4100026A64209D132
:105784000B4D0C4C00F072F8641BA4100026A642CA
:1057940005D170BD55F8043B98470136EEE755F83E
:1057A400043B98470136F2E7E85D0008E85D00082D
:1057B400E85D0008FC5D0008704770470A449142A8
:1057C40000F1FF3300D1704710B511F8014B03F815
:1057D400014F9142F9D110BD38B50546002941D099
:1057E40051F8043C0C1F002BB8BFE418FFF758FF16
:1057F4001D4A136833B9636014602846BDE8384015
:10580400FFF754BFA34208D9206821188B4201BF77
:1058140019685B6809182160EDE71A465B680BB1EB
:10582400A342FAD911685018A0420BD12068014450
:10583400501883421160E0D118685B6853600844D3
:105844001060DAE702D90C232B60D6E72068211810
:105854008B4204BF19685B68636004BF0918216048
:105864005460CAE738BD00BF04120020F8B500BF79
:10587400F8BC08BC9E467047F8B500BFF8BC08BC2D
:045884009E46704785
:105888000000000000000000190200083D020008A6
:105898003102000869030008850200089102000827
:1058A8005D030008A9020008F502000853544D6979
:1058B80063726F656C656374726F6E6963730047BA
:1058C800454E455249435F4634303152435458207F
:1058D80043444320696E204853204D6F6465004758
:1058E800454E455249435F4634303152435458205F
:1058F80043444320696E204653204D6F646500473A
:10590800454E455249435F4634303152435458203E
:1059180043444320436F6E6669670047454E4552CE
:1059280049435F463430315243545820434443205E
:10593800496E7465726661636500000000000000CE
:10594800400000008000000040000000010000004E
:1059580040000000820000004000000083000000BA
:10596800080000000800000000000050120A0000B3
:105978000900000000000050000000000A000000BC
:10598800000000501A0A00000B0000000000005040
:10599800120A00000C00000000000050120A00006B
:1059A800FFFFFFFF000000000000000003000000F0
:1059B80000440040120700000A00000000100140E7
:1059C800120700000C00000000140140120800003B
:1059D8001700000000100140120700002700000017
:1059E8000014014012080000FFFFFFFF0000000044
:1059F8000000000002000000004400401207000000
:105A08000900000000100140120700000B00000010
:105A180000140140120800001600000000100140A8
:105A280012070000260000000014014012080000C0
:105A3800FFFFFFFF00000000000000000000000062
:105A4800000000401281000000010000000C00402E
:105A58001282000001000000000000401201010055
:105A680001010000000C00401202010002000000C9
:105A7800000000401281010002010000000C0040FB
:105A8800128201000202000000400140128300005F
:105A980003000000000000401201020003010000A2
:105AA800000C004012020200030200000040014006
:105AB80012030100050000000000004012810000F0
:105AC80006000000000400401282000007000000E9
